{
  "_format": "hh-sol-artifact-1",
  "contractName": "CarbonToken",
  "sourceName": "contracts/CarbonToken.sol",
  "abi": [
    {
      "inputs": [],
      "stateMutability": "nonpayable",
      "type": "constructor"
    },
    {
      "inputs": [
        {
          "internalType": "address",
          "name": "spender",
          "type": "address"
        },
        {
          "internalType": "uint256",
          "name": "allowance",
          "type": "uint256"
        },
        {
          "internalType": "uint256",
          "name": "needed",
          "type": "uint256"
        }
      ],
      "name": "ERC20InsufficientAllowance",
      "type": "error"
    },
    {
      "inputs": [
        {
          "internalType": "address",
          "name": "sender",
          "type": "address"
        },
        {
          "internalType": "uint256",
          "name": "balance",
          "type": "uint256"
        },
        {
          "internalType": "uint256",
          "name": "needed",
          "type": "uint256"
        }
      ],
      "name": "ERC20InsufficientBalance",
      "type": "error"
    },
    {
      "inputs": [
        {
          "internalType": "address",
          "name": "approver",
          "type": "address"
        }
      ],
      "name": "ERC20InvalidApprover",
      "type": "error"
    },
    {
      "inputs": [
        {
          "internalType": "address",
          "name": "receiver",
          "type": "address"
        }
      ],
      "name": "ERC20InvalidReceiver",
      "type": "error"
    },
    {
      "inputs": [
        {
          "internalType": "address",
          "name": "sender",
          "type": "address"
        }
      ],
      "name": "ERC20InvalidSender",
      "type": "error"
    },
    {
      "inputs": [
        {
          "internalType": "address",
          "name": "spender",
          "type": "address"
        }
      ],
      "name": "ERC20InvalidSpender",
      "type": "error"
    },
    {
      "inputs": [
        {
          "internalType": "address",
          "name": "owner",
          "type": "address"
        }
      ],
      "name": "OwnableInvalidOwner",
      "type": "error"
    },
    {
      "inputs": [
        {
          "internalType": "address",
          "name": "account",
          "type": "address"
        }
      ],
      "name": "OwnableUnauthorizedAccount",
      "type": "error"
    },
    {
      "anonymous": false,
      "inputs": [
        {
          "indexed": true,
          "internalType": "address",
          "name": "owner",
          "type": "address"
        },
        {
          "indexed": true,
          "internalType": "address",
          "name": "spender",
          "type": "address"
        },
        {
          "indexed": false,
          "internalType": "uint256",
          "name": "value",
          "type": "uint256"
        }
      ],
      "name": "Approval",
      "type": "event"
    },
    {
      "anonymous": false,
      "inputs": [
        {
          "indexed": true,
          "internalType": "address",
          "name": "to",
          "type": "address"
        },
        {
          "indexed": false,
          "internalType": "string",
          "name": "message",
          "type": "string"
        }
      ],
      "name": "CertificateIssued",
      "type": "event"
    },
    {
      "anonymous": false,
      "inputs": [
        {
          "indexed": true,
          "internalType": "address",
          "name": "previousOwner",
          "type": "address"
        },
        {
          "indexed": true,
          "internalType": "address",
          "name": "newOwner",
          "type": "address"
        }
      ],
      "name": "OwnershipTransferred",
      "type": "event"
    },
    {
      "anonymous": false,
      "inputs": [
        {
          "indexed": true,
          "internalType": "address",
          "name": "from",
          "type": "address"
        },
        {
          "indexed": false,
          "internalType": "uint256",
          "name": "amount",
          "type": "uint256"
        }
      ],
      "name": "TokensBurned",
      "type": "event"
    },
    {
      "anonymous": false,
      "inputs": [
        {
          "indexed": true,
          "internalType": "address",
          "name": "to",
          "type": "address"
        },
        {
          "indexed": false,
          "internalType": "uint256",
          "name": "amount",
          "type": "uint256"
        }
      ],
      "name": "TokensMinted",
      "type": "event"
    },
    {
      "anonymous": false,
      "inputs": [
        {
          "indexed": true,
          "internalType": "address",
          "name": "from",
          "type": "address"
        },
        {
          "indexed": true,
          "internalType": "address",
          "name": "to",
          "type": "address"
        },
        {
          "indexed": false,
          "internalType": "uint256",
          "name": "value",
          "type": "uint256"
        }
      ],
      "name": "Transfer",
      "type": "event"
    },
    {
      "inputs": [
        {
          "internalType": "address",
          "name": "owner",
          "type": "address"
        },
        {
          "internalType": "address",
          "name": "spender",
          "type": "address"
        }
      ],
      "name": "allowance",
      "outputs": [
        {
          "internalType": "uint256",
          "name": "",
          "type": "uint256"
        }
      ],
      "stateMutability": "view",
      "type": "function"
    },
    {
      "inputs": [
        {
          "internalType": "address",
          "name": "spender",
          "type": "address"
        },
        {
          "internalType": "uint256",
          "name": "value",
          "type": "uint256"
        }
      ],
      "name": "approve",
      "outputs": [
        {
          "internalType": "bool",
          "name": "",
          "type": "bool"
        }
      ],
      "stateMutability": "nonpayable",
      "type": "function"
    },
    {
      "inputs": [
        {
          "internalType": "address",
          "name": "account",
          "type": "address"
        }
      ],
      "name": "balanceOf",
      "outputs": [
        {
          "internalType": "uint256",
          "name": "",
          "type": "uint256"
        }
      ],
      "stateMutability": "view",
      "type": "function"
    },
    {
      "inputs": [
        {
          "internalType": "address",
          "name": "from",
          "type": "address"
        },
        {
          "internalType": "uint256",
          "name": "amount",
          "type": "uint256"
        }
      ],
      "name": "burnTokens",
      "outputs": [],
      "stateMutability": "nonpayable",
      "type": "function"
    },
    {
      "inputs": [
        {
          "internalType": "address",
          "name": "",
          "type": "address"
        },
        {
          "internalType": "uint256",
          "name": "",
          "type": "uint256"
        }
      ],
      "name": "certificates",
      "outputs": [
        {
          "internalType": "string",
          "name": "message",
          "type": "string"
        },
        {
          "internalType": "uint256",
          "name": "timestamp",
          "type": "uint256"
        },
        {
          "internalType": "address",
          "name": "issuedTo",
          "type": "address"
        }
      ],
      "stateMutability": "view",
      "type": "function"
    },
    {
      "inputs": [],
      "name": "decimals",
      "outputs": [
        {
          "internalType": "uint8",
          "name": "",
          "type": "uint8"
        }
      ],
      "stateMutability": "view",
      "type": "function"
    },
    {
      "inputs": [
        {
          "internalType": "address",
          "name": "user",
          "type": "address"
        }
      ],
      "name": "getCertificates",
      "outputs": [
        {
          "components": [
            {
              "internalType": "string",
              "name": "message",
              "type": "string"
            },
            {
              "internalType": "uint256",
              "name": "timestamp",
              "type": "uint256"
            },
            {
              "internalType": "address",
              "name": "issuedTo",
              "type": "address"
            }
          ],
          "internalType": "struct CarbonToken.Certificate[]",
          "name": "",
          "type": "tuple[]"
        }
      ],
      "stateMutability": "view",
      "type": "function"
    },
    {
      "inputs": [
        {
          "internalType": "address",
          "name": "to",
          "type": "address"
        },
        {
          "internalType": "uint256",
          "name": "amount",
          "type": "uint256"
        }
      ],
      "name": "mintTokens",
      "outputs": [],
      "stateMutability": "nonpayable",
      "type": "function"
    },
    {
      "inputs": [],
      "name": "name",
      "outputs": [
        {
          "internalType": "string",
          "name": "",
          "type": "string"
        }
      ],
      "stateMutability": "view",
      "type": "function"
    },
    {
      "inputs": [],
      "name": "owner",
      "outputs": [
        {
          "internalType": "address",
          "name": "",
          "type": "address"
        }
      ],
      "stateMutability": "view",
      "type": "function"
    },
    {
      "inputs": [],
      "name": "renounceOwnership",
      "outputs": [],
      "stateMutability": "nonpayable",
      "type": "function"
    },
    {
      "inputs": [],
      "name": "symbol",
      "outputs": [
        {
          "internalType": "string",
          "name": "",
          "type": "string"
        }
      ],
      "stateMutability": "view",
      "type": "function"
    },
    {
      "inputs": [],
      "name": "totalSupply",
      "outputs": [
        {
          "internalType": "uint256",
          "name": "",
          "type": "uint256"
        }
      ],
      "stateMutability": "view",
      "type": "function"
    },
    {
      "inputs": [
        {
          "internalType": "address",
          "name": "to",
          "type": "address"
        },
        {
          "internalType": "uint256",
          "name": "value",
          "type": "uint256"
        }
      ],
      "name": "transfer",
      "outputs": [
        {
          "internalType": "bool",
          "name": "",
          "type": "bool"
        }
      ],
      "stateMutability": "nonpayable",
      "type": "function"
    },
    {
      "inputs": [
        {
          "internalType": "address",
          "name": "from",
          "type": "address"
        },
        {
          "internalType": "address",
          "name": "to",
          "type": "address"
        },
        {
          "internalType": "uint256",
          "name": "value",
          "type": "uint256"
        }
      ],
      "name": "transferFrom",
      "outputs": [
        {
          "internalType": "bool",
          "name": "",
          "type": "bool"
        }
      ],
      "stateMutability": "nonpayable",
      "type": "function"
    },
    {
      "inputs": [
        {
          "internalType": "address",
          "name": "newOwner",
          "type": "address"
        }
      ],
      "name": "transferOwnership",
      "outputs": [],
      "stateMutability": "nonpayable",
      "type": "function"
    }
  ],
  "bytecode": "0x60806040523480156200001157600080fd5b50336040518060400160405280600b81526020017f436172626f6e546f6b656e0000000000000000000000000000000000000000008152506040518060400160405280600481526020017f4341524200000000000000000000000000000000000000000000000000000000815250816003908162000090919062000472565b508060049081620000a2919062000472565b505050600073ffffffffffffffffffffffffffffffffffffffff168173ffffffffffffffffffffffffffffffffffffffff16036200011a5760006040517f1e4fbdf70000000000000000000000000000000000000000000000000000000081526004016200011191906200059e565b60405180910390fd5b6200012b816200013260201b60201c565b50620005bb565b6000600560009054906101000a900473ffffffffffffffffffffffffffffffffffffffff16905081600560006101000a81548173ffffffffffffffffffffffffffffffffffffffff021916908373ffffffffffffffffffffffffffffffffffffffff1602179055508173ffffffffffffffffffffffffffffffffffffffff168173ffffffffffffffffffffffffffffffffffffffff167f8be0079c531659141344cd1fd0a4f28419497f9722a3daafe3b4186f6b6457e060405160405180910390a35050565b600081519050919050565b7f4e487b7100000000000000000000000000000000000000000000000000000000600052604160045260246000fd5b7f4e487b7100000000000000000000000000000000000000000000000000000000600052602260045260246000fd5b600060028204905060018216806200027a57607f821691505b60208210810362000290576200028f62000232565b5b50919050565b60008190508160005260206000209050919050565b60006020601f8301049050919050565b600082821b905092915050565b600060088302620002fa7fffffffffffffffffffffffffffffffffffffffffffffffffffffffffffffffff82620002bb565b620003068683620002bb565b95508019841693508086168417925050509392505050565b6000819050919050565b6000819050919050565b6000620003536200034d62000347846200031e565b62000328565b6200031e565b9050919050565b6000819050919050565b6200036f8362000332565b620003876200037e826200035a565b848454620002c8565b825550505050565b600090565b6200039e6200038f565b620003ab81848462000364565b505050565b5b81811015620003d357620003c760008262000394565b600181019050620003b1565b5050565b601f8211156200042257620003ec8162000296565b620003f784620002ab565b8101602085101562000407578190505b6200041f6200041685620002ab565b830182620003b0565b50505b505050565b600082821c905092915050565b6000620004476000198460080262000427565b1980831691505092915050565b600062000462838362000434565b9150826002028217905092915050565b6200047d82620001f8565b67ffffffffffffffff81111562000499576200049862000203565b5b620004a5825462000261565b620004b2828285620003d7565b600060209050601f831160018114620004ea5760008415620004d5578287015190505b620004e1858262000454565b86555062000551565b601f198416620004fa8662000296565b60005b828110156200052457848901518255600182019150602085019450602081019050620004fd565b8683101562000544578489015162000540601f89168262000434565b8355505b6001600288020188555050505b505050505050565b600073ffffffffffffffffffffffffffffffffffffffff82169050919050565b6000620005868262000559565b9050919050565b620005988162000579565b82525050565b6000602082019050620005b560008301846200058d565b92915050565b611d5880620005cb6000396000f3fe608060405234801561001057600080fd5b50600436106101005760003560e01c8063715018a611610097578063dd62ed3e11610066578063dd62ed3e146102b3578063f0dda65c146102e3578063f1c49c62146102ff578063f2fde38b1461032f57610100565b8063715018a61461023d5780638da5cb5b1461024757806395d89b4114610265578063a9059cbb1461028357610100565b806323b872dd116100d357806323b872dd1461018d578063313ce567146101bd57806346f3141c146101db57806370a082311461020d57610100565b806306fdde0314610105578063095ea7b3146101235780630d1118ce1461015357806318160ddd1461016f575b600080fd5b61010d61034b565b60405161011a91906113d9565b60405180910390f35b61013d60048036038101906101389190611494565b6103dd565b60405161014a91906114ef565b60405180910390f35b61016d60048036038101906101689190611494565b610400565b005b61017761046e565b6040516101849190611519565b60405180910390f35b6101a760048036038101906101a29190611534565b610478565b6040516101b491906114ef565b60405180910390f35b6101c56104a7565b6040516101d291906115a3565b60405180910390f35b6101f560048036038101906101f09190611494565b6104b0565b604051610204939291906115cd565b60405180910390f35b6102276004803603810190610222919061160b565b61059f565b6040516102349190611519565b60405180910390f35b6102456105e7565b005b61024f6105fb565b60405161025c9190611638565b60405180910390f35b61026d610625565b60405161027a91906113d9565b60405180910390f35b61029d60048036038101906102989190611494565b6106b7565b6040516102aa91906114ef565b60405180910390f35b6102cd60048036038101906102c89190611653565b6106da565b6040516102da9190611519565b60405180910390f35b6102fd60048036038101906102f89190611494565b610761565b005b6103196004803603810190610314919061160b565b6107c5565b604051610326919061180d565b60405180910390f35b6103496004803603810190610344919061160b565b610955565b005b60606003805461035a9061185e565b80601f01602080910402602001604051908101604052809291908181526020018280546103869061185e565b80156103d35780601f106103a8576101008083540402835291602001916103d3565b820191906000526020600020905b8154815290600101906020018083116103b657829003601f168201915b5050505050905090565b6000806103e86109db565b90506103f58185856109e3565b600191505092915050565b6104086109f5565b6104128282610a7c565b8173ffffffffffffffffffffffffffffffffffffffff167ffd38818f5291bf0bb3a2a48aadc06ba8757865d1dabd804585338aab3009dcb6826040516104589190611519565b60405180910390a261046a8282610afe565b5050565b6000600254905090565b6000806104836109db565b9050610490858285610c7d565b61049b858585610d11565b60019150509392505050565b60006012905090565b600660205281600052604060002081815481106104cc57600080fd5b9060005260206000209060030201600091509150508060000180546104f09061185e565b80601f016020809104026020016040519081016040528092919081815260200182805461051c9061185e565b80156105695780601f1061053e57610100808354040283529160200191610569565b820191906000526020600020905b81548152906001019060200180831161054c57829003601f168201915b5050505050908060010154908060020160009054906101000a900473ffffffffffffffffffffffffffffffffffffffff16905083565b60008060008373ffffffffffffffffffffffffffffffffffffffff1673ffffffffffffffffffffffffffffffffffffffff168152602001908152602001600020549050919050565b6105ef6109f5565b6105f96000610e05565b565b6000600560009054906101000a900473ffffffffffffffffffffffffffffffffffffffff16905090565b6060600480546106349061185e565b80601f01602080910402602001604051908101604052809291908181526020018280546106609061185e565b80156106ad5780601f10610682576101008083540402835291602001916106ad565b820191906000526020600020905b81548152906001019060200180831161069057829003601f168201915b5050505050905090565b6000806106c26109db565b90506106cf818585610d11565b600191505092915050565b6000600160008473ffffffffffffffffffffffffffffffffffffffff1673ffffffffffffffffffffffffffffffffffffffff16815260200190815260200160002060008373ffffffffffffffffffffffffffffffffffffffff1673ffffffffffffffffffffffffffffffffffffffff16815260200190815260200160002054905092915050565b6107696109f5565b6107738282610ecb565b8173ffffffffffffffffffffffffffffffffffffffff167f3f2c9d57c068687834f0de942a9babb9e5acab57d516d3480a3c16ee165a4273826040516107b99190611519565b60405180910390a25050565b6060600660008373ffffffffffffffffffffffffffffffffffffffff1673ffffffffffffffffffffffffffffffffffffffff168152602001908152602001600020805480602002602001604051908101604052809291908181526020016000905b8282101561094a57838290600052602060002090600302016040518060600160405290816000820180546108599061185e565b80601f01602080910402602001604051908101604052809291908181526020018280546108859061185e565b80156108d25780601f106108a7576101008083540402835291602001916108d2565b820191906000526020600020905b8154815290600101906020018083116108b557829003601f168201915b50505050508152602001600182015481526020016002820160009054906101000a900473ffffffffffffffffffffffffffffffffffffffff1673ffffffffffffffffffffffffffffffffffffffff1673ffffffffffffffffffffffffffffffffffffffff168152505081526020019060010190610826565b505050509050919050565b61095d6109f5565b600073ffffffffffffffffffffffffffffffffffffffff168173ffffffffffffffffffffffffffffffffffffffff16036109cf5760006040517f1e4fbdf70000000000000000000000000000000000000000000000000000000081526004016109c69190611638565b60405180910390fd5b6109d881610e05565b50565b600033905090565b6109f08383836001610f4d565b505050565b6109fd6109db565b73ffffffffffffffffffffffffffffffffffffffff16610a1b6105fb565b73ffffffffffffffffffffffffffffffffffffffff1614610a7a57610a3e6109db565b6040517f118cdaa7000000000000000000000000000000000000000000000000000000008152600401610a719190611638565b60405180910390fd5b565b600073ffffffffffffffffffffffffffffffffffffffff168273ffffffffffffffffffffffffffffffffffffffff1603610aee5760006040517f96c6fd1e000000000000000000000000000000000000000000000000000000008152600401610ae59190611638565b60405180910390fd5b610afa82600083611124565b5050565b600081604051602001610b11919061199f565b6040516020818303038152906040529050600060405180606001604052808381526020014281526020018573ffffffffffffffffffffffffffffffffffffffff168152509050600660008573ffffffffffffffffffffffffffffffffffffffff1673ffffffffffffffffffffffffffffffffffffffff1681526020019081526020016000208190806001815401808255809150506001900390600052602060002090600302016000909190919091506000820151816000019081610bd59190611bb6565b506020820151816001015560408201518160020160006101000a81548173ffffffffffffffffffffffffffffffffffffffff021916908373ffffffffffffffffffffffffffffffffffffffff16021790555050508373ffffffffffffffffffffffffffffffffffffffff167f4514a45e6f56567008e790fe2158e66d34e8b8254c060ad061d570274879147983604051610c6f91906113d9565b60405180910390a250505050565b6000610c8984846106da565b90507fffffffffffffffffffffffffffffffffffffffffffffffffffffffffffffffff8114610d0b5781811015610cfb578281836040517ffb8f41b2000000000000000000000000000000000000000000000000000000008152600401610cf293929190611c88565b60405180910390fd5b610d0a84848484036000610f4d565b5b50505050565b600073ffffffffffffffffffffffffffffffffffffffff168373ffffffffffffffffffffffffffffffffffffffff1603610d835760006040517f96c6fd1e000000000000000000000000000000000000000000000000000000008152600401610d7a9190611638565b60405180910390fd5b600073ffffffffffffffffffffffffffffffffffffffff168273ffffffffffffffffffffffffffffffffffffffff1603610df55760006040517fec442f05000000000000000000000000000000000000000000000000000000008152600401610dec9190611638565b60405180910390fd5b610e00838383611124565b505050565b6000600560009054906101000a900473ffffffffffffffffffffffffffffffffffffffff16905081600560006101000a81548173ffffffffffffffffffffffffffffffffffffffff021916908373ffffffffffffffffffffffffffffffffffffffff1602179055508173ffffffffffffffffffffffffffffffffffffffff168173ffffffffffffffffffffffffffffffffffffffff167f8be0079c531659141344cd1fd0a4f28419497f9722a3daafe3b4186f6b6457e060405160405180910390a35050565b600073ffffffffffffffffffffffffffffffffffffffff168273ffffffffffffffffffffffffffffffffffffffff1603610f3d5760006040517fec442f05000000000000000000000000000000000000000000000000000000008152600401610f349190611638565b60405180910390fd5b610f4960008383611124565b5050565b600073ffffffffffffffffffffffffffffffffffffffff168473ffffffffffffffffffffffffffffffffffffffff1603610fbf5760006040517fe602df05000000000000000000000000000000000000000000000000000000008152600401610fb69190611638565b60405180910390fd5b600073ffffffffffffffffffffffffffffffffffffffff168373ffffffffffffffffffffffffffffffffffffffff16036110315760006040517f94280d620000000000000000000000000000000000000000000000000000000081526004016110289190611638565b60405180910390fd5b81600160008673ffffffffffffffffffffffffffffffffffffffff1673ffffffffffffffffffffffffffffffffffffffff16815260200190815260200160002060008573ffffffffffffffffffffffffffffffffffffffff1673ffffffffffffffffffffffffffffffffffffffff16815260200190815260200160002081905550801561111e578273ffffffffffffffffffffffffffffffffffffffff168473ffffffffffffffffffffffffffffffffffffffff167f8c5be1e5ebec7d5bd14f71427d1e84f3dd0314c0f7b2291e5b200ac8c7c3b925846040516111159190611519565b60405180910390a35b50505050565b600073ffffffffffffffffffffffffffffffffffffffff168373ffffffffffffffffffffffffffffffffffffffff160361117657806002600082825461116a9190611cee565b92505081905550611249565b60008060008573ffffffffffffffffffffffffffffffffffffffff1673ffffffffffffffffffffffffffffffffffffffff16815260200190815260200160002054905081811015611202578381836040517fe450d38c0000000000000000000000000000000000000000000000000000000081526004016111f993929190611c88565b60405180910390fd5b8181036000808673ffffffffffffffffffffffffffffffffffffffff1673ffffffffffffffffffffffffffffffffffffffff16815260200190815260200160002081905550505b600073ffffffffffffffffffffffffffffffffffffffff168273ffffffffffffffffffffffffffffffffffffffff160361129257806002600082825403925050819055506112df565b806000808473ffffffffffffffffffffffffffffffffffffffff1673ffffffffffffffffffffffffffffffffffffffff168152602001908152602001600020600082825401925050819055505b8173ffffffffffffffffffffffffffffffffffffffff168373ffffffffffffffffffffffffffffffffffffffff167fddf252ad1be2c89b69c2b068fc378daa952ba7f163c4a11628f55a4df523b3ef8360405161133c9190611519565b60405180910390a3505050565b600081519050919050565b600082825260208201905092915050565b60005b83811015611383578082015181840152602081019050611368565b60008484015250505050565b6000601f19601f8301169050919050565b60006113ab82611349565b6113b58185611354565b93506113c5818560208601611365565b6113ce8161138f565b840191505092915050565b600060208201905081810360008301526113f381846113a0565b905092915050565b600080fd5b600073ffffffffffffffffffffffffffffffffffffffff82169050919050565b600061142b82611400565b9050919050565b61143b81611420565b811461144657600080fd5b50565b60008135905061145881611432565b92915050565b6000819050919050565b6114718161145e565b811461147c57600080fd5b50565b60008135905061148e81611468565b92915050565b600080604083850312156114ab576114aa6113fb565b5b60006114b985828601611449565b92505060206114ca8582860161147f565b9150509250929050565b60008115159050919050565b6114e9816114d4565b82525050565b600060208201905061150460008301846114e0565b92915050565b6115138161145e565b82525050565b600060208201905061152e600083018461150a565b92915050565b60008060006060848603121561154d5761154c6113fb565b5b600061155b86828701611449565b935050602061156c86828701611449565b925050604061157d8682870161147f565b9150509250925092565b600060ff82169050919050565b61159d81611587565b82525050565b60006020820190506115b86000830184611594565b92915050565b6115c781611420565b82525050565b600060608201905081810360008301526115e781866113a0565b90506115f6602083018561150a565b61160360408301846115be565b949350505050565b600060208284031215611621576116206113fb565b5b600061162f84828501611449565b91505092915050565b600060208201905061164d60008301846115be565b92915050565b6000806040838503121561166a576116696113fb565b5b600061167885828601611449565b925050602061168985828601611449565b9150509250929050565b600081519050919050565b600082825260208201905092915050565b6000819050602082019050919050565b600082825260208201905092915050565b60006116db82611349565b6116e581856116bf565b93506116f5818560208601611365565b6116fe8161138f565b840191505092915050565b6117128161145e565b82525050565b61172181611420565b82525050565b6000606083016000830151848203600086015261174482826116d0565b91505060208301516117596020860182611709565b50604083015161176c6040860182611718565b508091505092915050565b60006117838383611727565b905092915050565b6000602082019050919050565b60006117a382611693565b6117ad818561169e565b9350836020820285016117bf856116af565b8060005b858110156117fb57848403895281516117dc8582611777565b94506117e78361178b565b925060208a019950506001810190506117c3565b50829750879550505050505092915050565b600060208201905081810360008301526118278184611798565b905092915050565b7f4e487b7100000000000000000000000000000000000000000000000000000000600052602260045260246000fd5b6000600282049050600182168061187657607f821691505b6020821081036118895761188861182f565b5b50919050565b600081905092915050565b7f43657274696669636174653a2000000000000000000000000000000000000000600082015250565b60006118d0600d8361188f565b91506118db8261189a565b600d82019050919050565b7f50726f6a65637420617070726f7665642e200000000000000000000000000000600082015250565b600061191c60128361188f565b9150611927826118e6565b601282019050919050565b6000819050919050565b61194d6119488261145e565b611932565b82525050565b7f20746f6b656e73206275726e6564207375636365737366756c6c792e00000000600082015250565b6000611989601c8361188f565b915061199482611953565b601c82019050919050565b60006119aa826118c3565b91506119b58261190f565b91506119c1828461193c565b6020820191506119d08261197c565b915081905092915050565b7f4e487b7100000000000000000000000000000000000000000000000000000000600052604160045260246000fd5b60008190508160005260206000209050919050565b60006020601f8301049050919050565b600082821b905092915050565b600060088302611a6c7fffffffffffffffffffffffffffffffffffffffffffffffffffffffffffffffff82611a2f565b611a768683611a2f565b95508019841693508086168417925050509392505050565b6000819050919050565b6000611ab3611aae611aa98461145e565b611a8e565b61145e565b9050919050565b6000819050919050565b611acd83611a98565b611ae1611ad982611aba565b848454611a3c565b825550505050565b600090565b611af6611ae9565b611b01818484611ac4565b505050565b5b81811015611b2557611b1a600082611aee565b600181019050611b07565b5050565b601f821115611b6a57611b3b81611a0a565b611b4484611a1f565b81016020851015611b53578190505b611b67611b5f85611a1f565b830182611b06565b50505b505050565b600082821c905092915050565b6000611b8d60001984600802611b6f565b1980831691505092915050565b6000611ba68383611b7c565b9150826002028217905092915050565b611bbf82611349565b67ffffffffffffffff811115611bd857611bd76119db565b5b611be2825461185e565b611bed828285611b29565b600060209050601f831160018114611c205760008415611c0e578287015190505b611c188582611b9a565b865550611c80565b601f198416611c2e86611a0a565b60005b82811015611c5657848901518255600182019150602085019450602081019050611c31565b86831015611c735784890151611c6f601f891682611b7c565b8355505b6001600288020188555050505b505050505050565b6000606082019050611c9d60008301866115be565b611caa602083018561150a565b611cb7604083018461150a565b949350505050565b7f4e487b7100000000000000000000000000000000000000000000000000000000600052601160045260246000fd5b6000611cf98261145e565b9150611d048361145e565b9250828201905080821115611d1c57611d1b611cbf565b5b9291505056fea2646970667358221220ded3704a525cc4073622ca42193e3048daffa568c8d3f98631b3ecc703cf6c6464736f6c63430008140033",
  "linkReferences": {},
  "deployedLinkReferences": {}
}