{
  "_format": "hh-sol-artifact-1",
  "contractName": "CarbonTokenApproval",
  "sourceName": "contracts/CarbonTokenApproval.sol",
  "abi": [
    {
      "inputs": [],
      "stateMutability": "nonpayable",
      "type": "constructor"
    },
    {
      "anonymous": false,
      "inputs": [
        {
          "indexed": false,
          "internalType": "uint256",
          "name": "requestId",
          "type": "uint256"
        },
        {
          "indexed": true,
          "internalType": "address",
          "name": "requester",
          "type": "address"
        }
      ],
      "name": "RequestApproved",
      "type": "event"
    },
    {
      "anonymous": false,
      "inputs": [
        {
          "indexed": false,
          "internalType": "uint256",
          "name": "requestId",
          "type": "uint256"
        },
        {
          "indexed": true,
          "internalType": "address",
          "name": "requester",
          "type": "address"
        }
      ],
      "name": "RequestRejected",
      "type": "event"
    },
    {
      "anonymous": false,
      "inputs": [
        {
          "indexed": true,
          "internalType": "address",
          "name": "requester",
          "type": "address"
        },
        {
          "indexed": false,
          "internalType": "uint256",
          "name": "requestId",
          "type": "uint256"
        },
        {
          "indexed": false,
          "internalType": "string",
          "name": "pinataHash",
          "type": "string"
        }
      ],
      "name": "RequestSubmitted",
      "type": "event"
    },
    {
      "inputs": [],
      "name": "admin",
      "outputs": [
        {
          "internalType": "address",
          "name": "",
          "type": "address"
        }
      ],
      "stateMutability": "view",
      "type": "function"
    },
    {
      "inputs": [
        {
          "internalType": "uint256",
          "name": "_requestId",
          "type": "uint256"
        }
      ],
      "name": "approveRequest",
      "outputs": [],
      "stateMutability": "nonpayable",
      "type": "function"
    },
    {
      "inputs": [],
      "name": "getRequestCount",
      "outputs": [
        {
          "internalType": "uint256",
          "name": "",
          "type": "uint256"
        }
      ],
      "stateMutability": "view",
      "type": "function"
    },
    {
      "inputs": [
        {
          "internalType": "uint256",
          "name": "_requestId",
          "type": "uint256"
        }
      ],
      "name": "rejectRequest",
      "outputs": [],
      "stateMutability": "nonpayable",
      "type": "function"
    },
    {
      "inputs": [
        {
          "internalType": "uint256",
          "name": "",
          "type": "uint256"
        }
      ],
      "name": "requests",
      "outputs": [
        {
          "internalType": "address",
          "name": "requester",
          "type": "address"
        },
        {
          "internalType": "string",
          "name": "pinataHash",
          "type": "string"
        },
        {
          "internalType": "bool",
          "name": "approved",
          "type": "bool"
        },
        {
          "internalType": "bool",
          "name": "reviewed",
          "type": "bool"
        }
      ],
      "stateMutability": "view",
      "type": "function"
    },
    {
      "inputs": [
        {
          "internalType": "string",
          "name": "_pinataHash",
          "type": "string"
        }
      ],
      "name": "submitRequest",
      "outputs": [],
      "stateMutability": "nonpayable",
      "type": "function"
    },
    {
      "inputs": [
        {
          "internalType": "address",
          "name": "newAdmin",
          "type": "address"
        }
      ],
      "name": "transferOwnership",
      "outputs": [],
      "stateMutability": "nonpayable",
      "type": "function"
    },
    {
      "inputs": [
        {
          "internalType": "uint256",
          "name": "_requestId",
          "type": "uint256"
        }
      ],
      "name": "viewRequest",
      "outputs": [
        {
          "internalType": "address",
          "name": "",
          "type": "address"
        },
        {
          "internalType": "string",
          "name": "",
          "type": "string"
        },
        {
          "internalType": "bool",
          "name": "",
          "type": "bool"
        },
        {
          "internalType": "bool",
          "name": "",
          "type": "bool"
        }
      ],
      "stateMutability": "view",
      "type": "function"
    },
    {
      "inputs": [
        {
          "internalType": "address",
          "name": "_user",
          "type": "address"
        }
      ],
      "name": "viewUserRequests",
      "outputs": [
        {
          "components": [
            {
              "internalType": "address",
              "name": "requester",
              "type": "address"
            },
            {
              "internalType": "string",
              "name": "pinataHash",
              "type": "string"
            },
            {
              "internalType": "bool",
              "name": "approved",
              "type": "bool"
            },
            {
              "internalType": "bool",
              "name": "reviewed",
              "type": "bool"
            }
          ],
          "internalType": "struct CarbonTokenApproval.Request[]",
          "name": "",
          "type": "tuple[]"
        }
      ],
      "stateMutability": "view",
      "type": "function"
    }
  ],
  "bytecode": "0x608060405234801561001057600080fd5b5033600160006101000a81548173ffffffffffffffffffffffffffffffffffffffff021916908373ffffffffffffffffffffffffffffffffffffffff160217905550611b2a806100616000396000f3fe608060405234801561001057600080fd5b50600436106100935760003560e01c8063d7d1bbdb11610066578063d7d1bbdb14610138578063e2e46b5214610154578063f2fde38b14610170578063f851a4401461018c578063f9da983e146101aa57610093565b806326e85250146100985780632d7788db146100cb5780633fad1834146100e757806381d12c5814610105575b600080fd5b6100b260048036038101906100ad9190610f74565b6101da565b6040516100c2949392919061108d565b60405180910390f35b6100e560048036038101906100e09190610f74565b61039a565b005b6100ef610598565b6040516100fc91906110e8565b60405180910390f35b61011f600480360381019061011a9190610f74565b6105a4565b60405161012f949392919061108d565b60405180910390f35b610152600480360381019061014d9190610f74565b6106a6565b005b61016e60048036038101906101699190611238565b6108a4565b005b61018a600480360381019061018591906112ad565b610a59565b005b610194610b9c565b6040516101a191906112da565b60405180910390f35b6101c460048036038101906101bf91906112ad565b610bc2565b6040516101d19190611482565b60405180910390f35b600060606000806000805490508510610228576040517f08c379a000000000000000000000000000000000000000000000000000000000815260040161021f906114f0565b60405180910390fd5b600080868154811061023d5761023c611510565b5b90600052602060002090600302016040518060800160405290816000820160009054906101000a900473ffffffffffffffffffffffffffffffffffffffff1673ffffffffffffffffffffffffffffffffffffffff1673ffffffffffffffffffffffffffffffffffffffff1681526020016001820180546102bc9061156e565b80601f01602080910402602001604051908101604052809291908181526020018280546102e89061156e565b80156103355780601f1061030a57610100808354040283529160200191610335565b820191906000526020600020905b81548152906001019060200180831161031857829003601f168201915b505050505081526020016002820160009054906101000a900460ff161515151581526020016002820160019054906101000a900460ff161515151581525050905080600001518160200151826040015183606001519450945094509450509193509193565b600160009054906101000a900473ffffffffffffffffffffffffffffffffffffffff1673ffffffffffffffffffffffffffffffffffffffff163373ffffffffffffffffffffffffffffffffffffffff161461042a576040517f08c379a000000000000000000000000000000000000000000000000000000000815260040161042190611611565b60405180910390fd5b6000805490508110610471576040517f08c379a0000000000000000000000000000000000000000000000000000000008152600401610468906114f0565b60405180910390fd5b600080828154811061048657610485611510565b5b906000526020600020906003020190508060020160019054906101000a900460ff16156104e8576040517f08c379a00000000000000000000000000000000000000000000000000000000081526004016104df9061167d565b60405180910390fd5b60008160020160006101000a81548160ff02191690831515021790555060018160020160016101000a81548160ff0219169083151502179055508060000160009054906101000a900473ffffffffffffffffffffffffffffffffffffffff1673ffffffffffffffffffffffffffffffffffffffff167f490ad67e4c8b3b9c1d11dfcd7f02e155190b8f6feff3a9d9e9df3721f0f74e578360405161058c91906110e8565b60405180910390a25050565b60008080549050905090565b600081815481106105b457600080fd5b90600052602060002090600302016000915090508060000160009054906101000a900473ffffffffffffffffffffffffffffffffffffffff16908060010180546105fd9061156e565b80601f01602080910402602001604051908101604052809291908181526020018280546106299061156e565b80156106765780601f1061064b57610100808354040283529160200191610676565b820191906000526020600020905b81548152906001019060200180831161065957829003601f168201915b5050505050908060020160009054906101000a900460ff16908060020160019054906101000a900460ff16905084565b600160009054906101000a900473ffffffffffffffffffffffffffffffffffffffff1673ffffffffffffffffffffffffffffffffffffffff163373ffffffffffffffffffffffffffffffffffffffff1614610736576040517f08c379a000000000000000000000000000000000000000000000000000000000815260040161072d90611611565b60405180910390fd5b600080549050811061077d576040517f08c379a0000000000000000000000000000000000000000000000000000000008152600401610774906114f0565b60405180910390fd5b600080828154811061079257610791611510565b5b906000526020600020906003020190508060020160019054906101000a900460ff16156107f4576040517f08c379a00000000000000000000000000000000000000000000000000000000081526004016107eb9061167d565b60405180910390fd5b60018160020160006101000a81548160ff02191690831515021790555060018160020160016101000a81548160ff0219169083151502179055508060000160009054906101000a900473ffffffffffffffffffffffffffffffffffffffff1673ffffffffffffffffffffffffffffffffffffffff167ff3dc904660a0ea05aba8dfa1e21fbc4fb2914be2a3029da7b0fdd3e5eee20ddb8360405161089891906110e8565b60405180910390a25050565b60008151116108e8576040517f08c379a00000000000000000000000000000000000000000000000000000000081526004016108df906116e9565b60405180910390fd5b600060405180608001604052803373ffffffffffffffffffffffffffffffffffffffff16815260200183815260200160001515815260200160001515815250908060018154018082558091505060019003906000526020600020906003020160009091909190915060008201518160000160006101000a81548173ffffffffffffffffffffffffffffffffffffffff021916908373ffffffffffffffffffffffffffffffffffffffff16021790555060208201518160010190816109ac91906118b5565b5060408201518160020160006101000a81548160ff02191690831515021790555060608201518160020160016101000a81548160ff021916908315150217905550505060006001600080549050610a0391906119b6565b90503373ffffffffffffffffffffffffffffffffffffffff167f40eacbde1838f60d3ebb3622aee8cd0ed08260034a5ff901784e0503ece14a768284604051610a4d9291906119ea565b60405180910390a25050565b600160009054906101000a900473ffffffffffffffffffffffffffffffffffffffff1673ffffffffffffffffffffffffffffffffffffffff163373ffffffffffffffffffffffffffffffffffffffff1614610ae9576040517f08c379a0000000000000000000000000000000000000000000000000000000008152600401610ae090611611565b60405180910390fd5b600073ffffffffffffffffffffffffffffffffffffffff168173ffffffffffffffffffffffffffffffffffffffff1603610b58576040517f08c379a0000000000000000000000000000000000000000000000000000000008152600401610b4f90611a8c565b60405180910390fd5b80600160006101000a81548173ffffffffffffffffffffffffffffffffffffffff021916908373ffffffffffffffffffffffffffffffffffffffff16021790555050565b600160009054906101000a900473ffffffffffffffffffffffffffffffffffffffff1681565b60606000805b600080549050811015610c6f578373ffffffffffffffffffffffffffffffffffffffff1660008281548110610c0057610bff611510565b5b906000526020600020906003020160000160009054906101000a900473ffffffffffffffffffffffffffffffffffffffff1673ffffffffffffffffffffffffffffffffffffffff1603610c5c578180610c5890611aac565b9250505b8080610c6790611aac565b915050610bc8565b5060008167ffffffffffffffff811115610c8c57610c8b61110d565b5b604051908082528060200260200182016040528015610cc557816020015b610cb2610ee8565b815260200190600190039081610caa5790505b5090506000805b600080549050811015610edc578573ffffffffffffffffffffffffffffffffffffffff1660008281548110610d0457610d03611510565b5b906000526020600020906003020160000160009054906101000a900473ffffffffffffffffffffffffffffffffffffffff1673ffffffffffffffffffffffffffffffffffffffff1603610ec95760008181548110610d6557610d64611510565b5b90600052602060002090600302016040518060800160405290816000820160009054906101000a900473ffffffffffffffffffffffffffffffffffffffff1673ffffffffffffffffffffffffffffffffffffffff1673ffffffffffffffffffffffffffffffffffffffff168152602001600182018054610de49061156e565b80601f0160208091040260200160405190810160405280929190818152602001828054610e109061156e565b8015610e5d5780601f10610e3257610100808354040283529160200191610e5d565b820191906000526020600020905b815481529060010190602001808311610e4057829003601f168201915b505050505081526020016002820160009054906101000a900460ff161515151581526020016002820160019054906101000a900460ff161515151581525050838381518110610eaf57610eae611510565b5b60200260200101819052508180610ec590611aac565b9250505b8080610ed490611aac565b915050610ccc565b50819350505050919050565b6040518060800160405280600073ffffffffffffffffffffffffffffffffffffffff168152602001606081526020016000151581526020016000151581525090565b6000604051905090565b600080fd5b600080fd5b6000819050919050565b610f5181610f3e565b8114610f5c57600080fd5b50565b600081359050610f6e81610f48565b92915050565b600060208284031215610f8a57610f89610f34565b5b6000610f9884828501610f5f565b91505092915050565b600073ffffffffffffffffffffffffffffffffffffffff82169050919050565b6000610fcc82610fa1565b9050919050565b610fdc81610fc1565b82525050565b600081519050919050565b600082825260208201905092915050565b60005b8381101561101c578082015181840152602081019050611001565b60008484015250505050565b6000601f19601f8301169050919050565b600061104482610fe2565b61104e8185610fed565b935061105e818560208601610ffe565b61106781611028565b840191505092915050565b60008115159050919050565b61108781611072565b82525050565b60006080820190506110a26000830187610fd3565b81810360208301526110b48186611039565b90506110c3604083018561107e565b6110d0606083018461107e565b95945050505050565b6110e281610f3e565b82525050565b60006020820190506110fd60008301846110d9565b92915050565b600080fd5b600080fd5b7f4e487b7100000000000000000000000000000000000000000000000000000000600052604160045260246000fd5b61114582611028565b810181811067ffffffffffffffff821117156111645761116361110d565b5b80604052505050565b6000611177610f2a565b9050611183828261113c565b919050565b600067ffffffffffffffff8211156111a3576111a261110d565b5b6111ac82611028565b9050602081019050919050565b82818337600083830152505050565b60006111db6111d684611188565b61116d565b9050828152602081018484840111156111f7576111f6611108565b5b6112028482856111b9565b509392505050565b600082601f83011261121f5761121e611103565b5b813561122f8482602086016111c8565b91505092915050565b60006020828403121561124e5761124d610f34565b5b600082013567ffffffffffffffff81111561126c5761126b610f39565b5b6112788482850161120a565b91505092915050565b61128a81610fc1565b811461129557600080fd5b50565b6000813590506112a781611281565b92915050565b6000602082840312156112c3576112c2610f34565b5b60006112d184828501611298565b91505092915050565b60006020820190506112ef6000830184610fd3565b92915050565b600081519050919050565b600082825260208201905092915050565b6000819050602082019050919050565b61132a81610fc1565b82525050565b600082825260208201905092915050565b600061134c82610fe2565b6113568185611330565b9350611366818560208601610ffe565b61136f81611028565b840191505092915050565b61138381611072565b82525050565b60006080830160008301516113a16000860182611321565b50602083015184820360208601526113b98282611341565b91505060408301516113ce604086018261137a565b5060608301516113e1606086018261137a565b508091505092915050565b60006113f88383611389565b905092915050565b6000602082019050919050565b6000611418826112f5565b6114228185611300565b93508360208202850161143485611311565b8060005b85811015611470578484038952815161145185826113ec565b945061145c83611400565b925060208a01995050600181019050611438565b50829750879550505050505092915050565b6000602082019050818103600083015261149c818461140d565b905092915050565b7f496e76616c696420726571756573742049442e00000000000000000000000000600082015250565b60006114da601383610fed565b91506114e5826114a4565b602082019050919050565b60006020820190508181036000830152611509816114cd565b9050919050565b7f4e487b7100000000000000000000000000000000000000000000000000000000600052603260045260246000fd5b7f4e487b7100000000000000000000000000000000000000000000000000000000600052602260045260246000fd5b6000600282049050600182168061158657607f821691505b6020821081036115995761159861153f565b5b50919050565b7f4f6e6c79207468652061646d696e2063616e2063616c6c20746869732066756e60008201527f6374696f6e2e0000000000000000000000000000000000000000000000000000602082015250565b60006115fb602683610fed565b91506116068261159f565b604082019050919050565b6000602082019050818103600083015261162a816115ee565b9050919050565b7f5265717565737420616c72656164792072657669657765642e00000000000000600082015250565b6000611667601983610fed565b915061167282611631565b602082019050919050565b600060208201905081810360008301526116968161165a565b9050919050565b7f50696e61746120686173682063616e6e6f7420626520656d7074792e00000000600082015250565b60006116d3601c83610fed565b91506116de8261169d565b602082019050919050565b60006020820190508181036000830152611702816116c6565b9050919050565b60008190508160005260206000209050919050565b60006020601f8301049050919050565b600082821b905092915050565b60006008830261176b7fffffffffffffffffffffffffffffffffffffffffffffffffffffffffffffffff8261172e565b611775868361172e565b95508019841693508086168417925050509392505050565b6000819050919050565b60006117b26117ad6117a884610f3e565b61178d565b610f3e565b9050919050565b6000819050919050565b6117cc83611797565b6117e06117d8826117b9565b84845461173b565b825550505050565b600090565b6117f56117e8565b6118008184846117c3565b505050565b5b81811015611824576118196000826117ed565b600181019050611806565b5050565b601f8211156118695761183a81611709565b6118438461171e565b81016020851015611852578190505b61186661185e8561171e565b830182611805565b50505b505050565b600082821c905092915050565b600061188c6000198460080261186e565b1980831691505092915050565b60006118a5838361187b565b9150826002028217905092915050565b6118be82610fe2565b67ffffffffffffffff8111156118d7576118d661110d565b5b6118e1825461156e565b6118ec828285611828565b600060209050601f83116001811461191f576000841561190d578287015190505b6119178582611899565b86555061197f565b601f19841661192d86611709565b60005b8281101561195557848901518255600182019150602085019450602081019050611930565b86831015611972578489015161196e601f89168261187b565b8355505b6001600288020188555050505b505050505050565b7f4e487b7100000000000000000000000000000000000000000000000000000000600052601160045260246000fd5b60006119c182610f3e565b91506119cc83610f3e565b92508282039050818111156119e4576119e3611987565b5b92915050565b60006040820190506119ff60008301856110d9565b8181036020830152611a118184611039565b90509392505050565b7f4e65772061646d696e20616464726573732063616e6e6f74206265207a65726f60008201527f2e00000000000000000000000000000000000000000000000000000000000000602082015250565b6000611a76602183610fed565b9150611a8182611a1a565b604082019050919050565b60006020820190508181036000830152611aa581611a69565b9050919050565b6000611ab782610f3e565b91507fffffffffffffffffffffffffffffffffffffffffffffffffffffffffffffffff8203611ae957611ae8611987565b5b60018201905091905056fea2646970667358221220c7bf79d5eed9070830d58dcc81554dcf6c7cf2b77807cc5a25d2307784bffa4464736f6c63430008140033",
  "linkReferences": {},
  "deployedLinkReferences": {}
}