{
  "_format": "hh-sol-artifact-1",
  "contractName": "ProjectNFT",
  "sourceName": "contracts/ProjectNFT.sol",
  "abi": [
    {
      "inputs": [],
      "stateMutability": "nonpayable",
      "type": "constructor"
    },
    {
      "inputs": [
        {
          "internalType": "address",
          "name": "sender",
          "type": "address"
        },
        {
          "internalType": "uint256",
          "name": "tokenId",
          "type": "uint256"
        },
        {
          "internalType": "address",
          "name": "owner",
          "type": "address"
        }
      ],
      "name": "ERC721IncorrectOwner",
      "type": "error"
    },
    {
      "inputs": [
        {
          "internalType": "address",
          "name": "operator",
          "type": "address"
        },
        {
          "internalType": "uint256",
          "name": "tokenId",
          "type": "uint256"
        }
      ],
      "name": "ERC721InsufficientApproval",
      "type": "error"
    },
    {
      "inputs": [
        {
          "internalType": "address",
          "name": "approver",
          "type": "address"
        }
      ],
      "name": "ERC721InvalidApprover",
      "type": "error"
    },
    {
      "inputs": [
        {
          "internalType": "address",
          "name": "operator",
          "type": "address"
        }
      ],
      "name": "ERC721InvalidOperator",
      "type": "error"
    },
    {
      "inputs": [
        {
          "internalType": "address",
          "name": "owner",
          "type": "address"
        }
      ],
      "name": "ERC721InvalidOwner",
      "type": "error"
    },
    {
      "inputs": [
        {
          "internalType": "address",
          "name": "receiver",
          "type": "address"
        }
      ],
      "name": "ERC721InvalidReceiver",
      "type": "error"
    },
    {
      "inputs": [
        {
          "internalType": "address",
          "name": "sender",
          "type": "address"
        }
      ],
      "name": "ERC721InvalidSender",
      "type": "error"
    },
    {
      "inputs": [
        {
          "internalType": "uint256",
          "name": "tokenId",
          "type": "uint256"
        }
      ],
      "name": "ERC721NonexistentToken",
      "type": "error"
    },
    {
      "anonymous": false,
      "inputs": [
        {
          "indexed": true,
          "internalType": "address",
          "name": "owner",
          "type": "address"
        },
        {
          "indexed": true,
          "internalType": "address",
          "name": "approved",
          "type": "address"
        },
        {
          "indexed": true,
          "internalType": "uint256",
          "name": "tokenId",
          "type": "uint256"
        }
      ],
      "name": "Approval",
      "type": "event"
    },
    {
      "anonymous": false,
      "inputs": [
        {
          "indexed": true,
          "internalType": "address",
          "name": "owner",
          "type": "address"
        },
        {
          "indexed": true,
          "internalType": "address",
          "name": "operator",
          "type": "address"
        },
        {
          "indexed": false,
          "internalType": "bool",
          "name": "approved",
          "type": "bool"
        }
      ],
      "name": "ApprovalForAll",
      "type": "event"
    },
    {
      "anonymous": false,
      "inputs": [
        {
          "indexed": false,
          "internalType": "uint256",
          "name": "_fromTokenId",
          "type": "uint256"
        },
        {
          "indexed": false,
          "internalType": "uint256",
          "name": "_toTokenId",
          "type": "uint256"
        }
      ],
      "name": "BatchMetadataUpdate",
      "type": "event"
    },
    {
      "anonymous": false,
      "inputs": [
        {
          "indexed": false,
          "internalType": "uint256",
          "name": "_tokenId",
          "type": "uint256"
        }
      ],
      "name": "MetadataUpdate",
      "type": "event"
    },
    {
      "anonymous": false,
      "inputs": [
        {
          "indexed": true,
          "internalType": "uint256",
          "name": "tokenId",
          "type": "uint256"
        },
        {
          "indexed": true,
          "internalType": "address",
          "name": "creator",
          "type": "address"
        },
        {
          "indexed": false,
          "internalType": "string",
          "name": "name",
          "type": "string"
        },
        {
          "indexed": false,
          "internalType": "string",
          "name": "description",
          "type": "string"
        },
        {
          "indexed": false,
          "internalType": "string",
          "name": "ipfsHash",
          "type": "string"
        },
        {
          "indexed": false,
          "internalType": "uint256",
          "name": "price",
          "type": "uint256"
        }
      ],
      "name": "ProjectNFTCreated",
      "type": "event"
    },
    {
      "anonymous": false,
      "inputs": [
        {
          "indexed": true,
          "internalType": "address",
          "name": "from",
          "type": "address"
        },
        {
          "indexed": true,
          "internalType": "address",
          "name": "to",
          "type": "address"
        },
        {
          "indexed": true,
          "internalType": "uint256",
          "name": "tokenId",
          "type": "uint256"
        }
      ],
      "name": "Transfer",
      "type": "event"
    },
    {
      "inputs": [
        {
          "internalType": "address",
          "name": "to",
          "type": "address"
        },
        {
          "internalType": "uint256",
          "name": "tokenId",
          "type": "uint256"
        }
      ],
      "name": "approve",
      "outputs": [],
      "stateMutability": "nonpayable",
      "type": "function"
    },
    {
      "inputs": [
        {
          "internalType": "address",
          "name": "owner",
          "type": "address"
        }
      ],
      "name": "balanceOf",
      "outputs": [
        {
          "internalType": "uint256",
          "name": "",
          "type": "uint256"
        }
      ],
      "stateMutability": "view",
      "type": "function"
    },
    {
      "inputs": [
        {
          "internalType": "uint256",
          "name": "tokenId",
          "type": "uint256"
        }
      ],
      "name": "buyNFT",
      "outputs": [],
      "stateMutability": "payable",
      "type": "function"
    },
    {
      "inputs": [
        {
          "internalType": "string",
          "name": "name",
          "type": "string"
        },
        {
          "internalType": "string",
          "name": "description",
          "type": "string"
        },
        {
          "internalType": "string",
          "name": "ipfsHash",
          "type": "string"
        },
        {
          "internalType": "uint256",
          "name": "priceInWei",
          "type": "uint256"
        }
      ],
      "name": "createProjectNFT",
      "outputs": [
        {
          "internalType": "uint256",
          "name": "",
          "type": "uint256"
        }
      ],
      "stateMutability": "nonpayable",
      "type": "function"
    },
    {
      "inputs": [
        {
          "internalType": "uint256",
          "name": "tokenId",
          "type": "uint256"
        }
      ],
      "name": "getApproved",
      "outputs": [
        {
          "internalType": "address",
          "name": "",
          "type": "address"
        }
      ],
      "stateMutability": "view",
      "type": "function"
    },
    {
      "inputs": [
        {
          "internalType": "address",
          "name": "owner",
          "type": "address"
        }
      ],
      "name": "getOwnedNFTsWithDetails",
      "outputs": [
        {
          "components": [
            {
              "internalType": "string",
              "name": "name",
              "type": "string"
            },
            {
              "internalType": "string",
              "name": "description",
              "type": "string"
            },
            {
              "internalType": "string",
              "name": "ipfsHash",
              "type": "string"
            },
            {
              "internalType": "uint256",
              "name": "price",
              "type": "uint256"
            }
          ],
          "internalType": "struct ProjectNFT.Project[]",
          "name": "",
          "type": "tuple[]"
        }
      ],
      "stateMutability": "view",
      "type": "function"
    },
    {
      "inputs": [
        {
          "internalType": "uint256",
          "name": "tokenId",
          "type": "uint256"
        }
      ],
      "name": "getProjectDetails",
      "outputs": [
        {
          "internalType": "string",
          "name": "",
          "type": "string"
        },
        {
          "internalType": "string",
          "name": "",
          "type": "string"
        },
        {
          "internalType": "string",
          "name": "",
          "type": "string"
        },
        {
          "internalType": "uint256",
          "name": "",
          "type": "uint256"
        }
      ],
      "stateMutability": "view",
      "type": "function"
    },
    {
      "inputs": [
        {
          "internalType": "address",
          "name": "owner",
          "type": "address"
        },
        {
          "internalType": "address",
          "name": "operator",
          "type": "address"
        }
      ],
      "name": "isApprovedForAll",
      "outputs": [
        {
          "internalType": "bool",
          "name": "",
          "type": "bool"
        }
      ],
      "stateMutability": "view",
      "type": "function"
    },
    {
      "inputs": [],
      "name": "listAllNFTs",
      "outputs": [
        {
          "internalType": "uint256[]",
          "name": "",
          "type": "uint256[]"
        },
        {
          "components": [
            {
              "internalType": "string",
              "name": "name",
              "type": "string"
            },
            {
              "internalType": "string",
              "name": "description",
              "type": "string"
            },
            {
              "internalType": "string",
              "name": "ipfsHash",
              "type": "string"
            },
            {
              "internalType": "uint256",
              "name": "price",
              "type": "uint256"
            }
          ],
          "internalType": "struct ProjectNFT.Project[]",
          "name": "",
          "type": "tuple[]"
        }
      ],
      "stateMutability": "view",
      "type": "function"
    },
    {
      "inputs": [],
      "name": "name",
      "outputs": [
        {
          "internalType": "string",
          "name": "",
          "type": "string"
        }
      ],
      "stateMutability": "view",
      "type": "function"
    },
    {
      "inputs": [
        {
          "internalType": "uint256",
          "name": "tokenId",
          "type": "uint256"
        }
      ],
      "name": "ownerOf",
      "outputs": [
        {
          "internalType": "address",
          "name": "",
          "type": "address"
        }
      ],
      "stateMutability": "view",
      "type": "function"
    },
    {
      "inputs": [
        {
          "internalType": "uint256",
          "name": "",
          "type": "uint256"
        }
      ],
      "name": "projectCreators",
      "outputs": [
        {
          "internalType": "address",
          "name": "",
          "type": "address"
        }
      ],
      "stateMutability": "view",
      "type": "function"
    },
    {
      "inputs": [
        {
          "internalType": "uint256",
          "name": "",
          "type": "uint256"
        }
      ],
      "name": "projects",
      "outputs": [
        {
          "internalType": "string",
          "name": "name",
          "type": "string"
        },
        {
          "internalType": "string",
          "name": "description",
          "type": "string"
        },
        {
          "internalType": "string",
          "name": "ipfsHash",
          "type": "string"
        },
        {
          "internalType": "uint256",
          "name": "price",
          "type": "uint256"
        }
      ],
      "stateMutability": "view",
      "type": "function"
    },
    {
      "inputs": [
        {
          "internalType": "address",
          "name": "from",
          "type": "address"
        },
        {
          "internalType": "address",
          "name": "to",
          "type": "address"
        },
        {
          "internalType": "uint256",
          "name": "tokenId",
          "type": "uint256"
        }
      ],
      "name": "safeTransferFrom",
      "outputs": [],
      "stateMutability": "nonpayable",
      "type": "function"
    },
    {
      "inputs": [
        {
          "internalType": "address",
          "name": "from",
          "type": "address"
        },
        {
          "internalType": "address",
          "name": "to",
          "type": "address"
        },
        {
          "internalType": "uint256",
          "name": "tokenId",
          "type": "uint256"
        },
        {
          "internalType": "bytes",
          "name": "data",
          "type": "bytes"
        }
      ],
      "name": "safeTransferFrom",
      "outputs": [],
      "stateMutability": "nonpayable",
      "type": "function"
    },
    {
      "inputs": [
        {
          "internalType": "address",
          "name": "operator",
          "type": "address"
        },
        {
          "internalType": "bool",
          "name": "approved",
          "type": "bool"
        }
      ],
      "name": "setApprovalForAll",
      "outputs": [],
      "stateMutability": "nonpayable",
      "type": "function"
    },
    {
      "inputs": [
        {
          "internalType": "bytes4",
          "name": "interfaceId",
          "type": "bytes4"
        }
      ],
      "name": "supportsInterface",
      "outputs": [
        {
          "internalType": "bool",
          "name": "",
          "type": "bool"
        }
      ],
      "stateMutability": "view",
      "type": "function"
    },
    {
      "inputs": [],
      "name": "symbol",
      "outputs": [
        {
          "internalType": "string",
          "name": "",
          "type": "string"
        }
      ],
      "stateMutability": "view",
      "type": "function"
    },
    {
      "inputs": [
        {
          "internalType": "uint256",
          "name": "tokenId",
          "type": "uint256"
        }
      ],
      "name": "tokenURI",
      "outputs": [
        {
          "internalType": "string",
          "name": "",
          "type": "string"
        }
      ],
      "stateMutability": "view",
      "type": "function"
    },
    {
      "inputs": [
        {
          "internalType": "address",
          "name": "from",
          "type": "address"
        },
        {
          "internalType": "address",
          "name": "to",
          "type": "address"
        },
        {
          "internalType": "uint256",
          "name": "tokenId",
          "type": "uint256"
        }
      ],
      "name": "transferFrom",
      "outputs": [],
      "stateMutability": "nonpayable",
      "type": "function"
    }
  ],
  "bytecode": "0x60806040523480156200001157600080fd5b506040518060400160405280600a81526020017f50726f6a6563744e4654000000000000000000000000000000000000000000008152506040518060400160405280600481526020017f504e46540000000000000000000000000000000000000000000000000000000081525081600090816200008f919062000324565b508060019081620000a1919062000324565b5050506200040b565b600081519050919050565b7f4e487b7100000000000000000000000000000000000000000000000000000000600052604160045260246000fd5b7f4e487b7100000000000000000000000000000000000000000000000000000000600052602260045260246000fd5b600060028204905060018216806200012c57607f821691505b602082108103620001425762000141620000e4565b5b50919050565b60008190508160005260206000209050919050565b60006020601f8301049050919050565b600082821b905092915050565b600060088302620001ac7fffffffffffffffffffffffffffffffffffffffffffffffffffffffffffffffff826200016d565b620001b886836200016d565b95508019841693508086168417925050509392505050565b6000819050919050565b6000819050919050565b600062000205620001ff620001f984620001d0565b620001da565b620001d0565b9050919050565b6000819050919050565b6200022183620001e4565b6200023962000230826200020c565b8484546200017a565b825550505050565b600090565b6200025062000241565b6200025d81848462000216565b505050565b5b8181101562000285576200027960008262000246565b60018101905062000263565b5050565b601f821115620002d4576200029e8162000148565b620002a9846200015d565b81016020851015620002b9578190505b620002d1620002c8856200015d565b83018262000262565b50505b505050565b600082821c905092915050565b6000620002f960001984600802620002d9565b1980831691505092915050565b6000620003148383620002e6565b9150826002028217905092915050565b6200032f82620000aa565b67ffffffffffffffff8111156200034b576200034a620000b5565b5b62000357825462000113565b6200036482828562000289565b600060209050601f8311600181146200039c576000841562000387578287015190505b62000393858262000306565b86555062000403565b601f198416620003ac8662000148565b60005b82811015620003d657848901518255600182019150602085019450602081019050620003af565b86831015620003f65784890151620003f2601f891682620002e6565b8355505b6001600288020188555050505b505050505050565b613fc7806200041b6000396000f3fe60806040526004361061011f5760003560e01c80636352211e116100a0578063a22cb46511610064578063a22cb4651461042b578063b88d4fde14610454578063c87b56dd1461047d578063e985e9c5146104ba578063f63ef2a7146104f75761011f565b80636352211e1461031d5780636dbaedc51461035a57806370a082311461039757806381ebc2c8146103d457806395d89b41146104005761011f565b806323b872dd116100e757806323b872dd14610232578063328070431461025b57806342842e0e1461029857806351ed8288146102c15780635f8439e3146102dd5761011f565b806301ffc9a71461012457806306fdde0314610161578063081812fc1461018c578063095ea7b3146101c9578063107046bd146101f2575b600080fd5b34801561013057600080fd5b5061014b60048036038101906101469190612db8565b610534565b6040516101589190612e00565b60405180910390f35b34801561016d57600080fd5b50610176610595565b6040516101839190612eab565b60405180910390f35b34801561019857600080fd5b506101b360048036038101906101ae9190612f03565b610627565b6040516101c09190612f71565b60405180910390f35b3480156101d557600080fd5b506101f060048036038101906101eb9190612fb8565b610643565b005b3480156101fe57600080fd5b5061021960048036038101906102149190612f03565b610659565b6040516102299493929190613007565b60405180910390f35b34801561023e57600080fd5b5061025960048036038101906102549190613061565b610821565b005b34801561026757600080fd5b50610282600480360381019061027d91906131e9565b610923565b60405161028f91906132a4565b60405180910390f35b3480156102a457600080fd5b506102bf60048036038101906102ba9190613061565b610c02565b005b6102db60048036038101906102d69190612f03565b610c22565b005b3480156102e957600080fd5b5061030460048036038101906102ff9190612f03565b610f8f565b6040516103149493929190613007565b60405180910390f35b34801561032957600080fd5b50610344600480360381019061033f9190612f03565b6111e1565b6040516103519190612f71565b60405180910390f35b34801561036657600080fd5b50610381600480360381019061037c91906132bf565b6111f3565b60405161038e9190613478565b60405180910390f35b3480156103a357600080fd5b506103be60048036038101906103b991906132bf565b611520565b6040516103cb91906132a4565b60405180910390f35b3480156103e057600080fd5b506103e96115da565b6040516103f7929190613549565b60405180910390f35b34801561040c57600080fd5b506104156118ec565b6040516104229190612eab565b60405180910390f35b34801561043757600080fd5b50610452600480360381019061044d91906135ac565b61197e565b005b34801561046057600080fd5b5061047b6004803603810190610476919061368d565b611994565b005b34801561048957600080fd5b506104a4600480360381019061049f9190612f03565b6119b1565b6040516104b19190612eab565b60405180910390f35b3480156104c657600080fd5b506104e160048036038101906104dc9190613710565b611ac4565b6040516104ee9190612e00565b60405180910390f35b34801561050357600080fd5b5061051e60048036038101906105199190612f03565b611b58565b60405161052b9190612f71565b60405180910390f35b6000634906490660e01b7bffffffffffffffffffffffffffffffffffffffffffffffffffffffff1916827bffffffffffffffffffffffffffffffffffffffffffffffffffffffff1916148061058e575061058d82611b8b565b5b9050919050565b6060600080546105a49061377f565b80601f01602080910402602001604051908101604052809291908181526020018280546105d09061377f565b801561061d5780601f106105f25761010080835404028352916020019161061d565b820191906000526020600020905b81548152906001019060200180831161060057829003601f168201915b5050505050905090565b600061063282611c6d565b5061063c82611cf5565b9050919050565b6106558282610650611d32565b611d3a565b5050565b600860205280600052604060002060009150905080600001805461067c9061377f565b80601f01602080910402602001604051908101604052809291908181526020018280546106a89061377f565b80156106f55780601f106106ca576101008083540402835291602001916106f5565b820191906000526020600020905b8154815290600101906020018083116106d857829003601f168201915b50505050509080600101805461070a9061377f565b80601f01602080910402602001604051908101604052809291908181526020018280546107369061377f565b80156107835780601f1061075857610100808354040283529160200191610783565b820191906000526020600020905b81548152906001019060200180831161076657829003601f168201915b5050505050908060020180546107989061377f565b80601f01602080910402602001604051908101604052809291908181526020018280546107c49061377f565b80156108115780601f106107e657610100808354040283529160200191610811565b820191906000526020600020905b8154815290600101906020018083116107f457829003601f168201915b5050505050908060030154905084565b600073ffffffffffffffffffffffffffffffffffffffff168273ffffffffffffffffffffffffffffffffffffffff16036108935760006040517f64a0ae9200000000000000000000000000000000000000000000000000000000815260040161088a9190612f71565b60405180910390fd5b60006108a783836108a2611d32565b611d4c565b90508373ffffffffffffffffffffffffffffffffffffffff168173ffffffffffffffffffffffffffffffffffffffff161461091d578382826040517f64283d7b000000000000000000000000000000000000000000000000000000008152600401610914939291906137b0565b60405180910390fd5b50505050565b600080855111610968576040517f08c379a000000000000000000000000000000000000000000000000000000000815260040161095f90613833565b60405180910390fd5b60008451116109ac576040517f08c379a00000000000000000000000000000000000000000000000000000000081526004016109a39061389f565b60405180910390fd5b60008351116109f0576040517f08c379a00000000000000000000000000000000000000000000000000000000081526004016109e79061390b565b60405180910390fd5b60008211610a33576040517f08c379a0000000000000000000000000000000000000000000000000000000008152600401610a2a90613977565b60405180910390fd5b60076000815480929190610a46906139c6565b919050555060006007549050610a5c3382611f66565b610a668185611f84565b604051806080016040528087815260200186815260200185815260200184815250600860008381526020019081526020016000206000820151816000019081610aaf9190613bba565b506020820151816001019081610ac59190613bba565b506040820151816002019081610adb9190613bba565b5060608201518160030155905050336009600083815260200190815260200160002060006101000a81548173ffffffffffffffffffffffffffffffffffffffff021916908373ffffffffffffffffffffffffffffffffffffffff160217905550600a60003373ffffffffffffffffffffffffffffffffffffffff1673ffffffffffffffffffffffffffffffffffffffff1681526020019081526020016000208190806001815401808255809150506001900390600052602060002001600090919091909150553373ffffffffffffffffffffffffffffffffffffffff16817fcfe1510748f3f38b7a2833e99b64a4f8c1fe75ae5ac5e7270308242d360c9c3d88888888604051610bee9493929190613007565b60405180910390a380915050949350505050565b610c1d83838360405180602001604052806000815250611994565b505050565b806007541015610c67576040517f08c379a0000000000000000000000000000000000000000000000000000000008152600401610c5e90613cd8565b60405180910390fd5b600060086000838152602001908152602001600020604051806080016040529081600082018054610c979061377f565b80601f0160208091040260200160405190810160405280929190818152602001828054610cc39061377f565b8015610d105780601f10610ce557610100808354040283529160200191610d10565b820191906000526020600020905b815481529060010190602001808311610cf357829003601f168201915b50505050508152602001600182018054610d299061377f565b80601f0160208091040260200160405190810160405280929190818152602001828054610d559061377f565b8015610da25780601f10610d7757610100808354040283529160200191610da2565b820191906000526020600020905b815481529060010190602001808311610d8557829003601f168201915b50505050508152602001600282018054610dbb9061377f565b80601f0160208091040260200160405190810160405280929190818152602001828054610de79061377f565b8015610e345780601f10610e0957610100808354040283529160200191610e34565b820191906000526020600020905b815481529060010190602001808311610e1757829003601f168201915b5050505050815260200160038201548152505090508060600151341015610e90576040517f08c379a0000000000000000000000000000000000000000000000000000000008152600401610e8790613d44565b60405180910390fd5b60006009600084815260200190815260200160002060009054906101000a900473ffffffffffffffffffffffffffffffffffffffff169050610ed3813385611fe0565b8073ffffffffffffffffffffffffffffffffffffffff166108fc349081150290604051600060405180830381858888f19350505050158015610f19573d6000803e3d6000fd5b50610f24818461214d565b600a60003373ffffffffffffffffffffffffffffffffffffffff1673ffffffffffffffffffffffffffffffffffffffff168152602001908152602001600020839080600181540180825580915050600190039060005260206000200160009091909190915055505050565b60608060606000846007541015610fdb576040517f08c379a0000000000000000000000000000000000000000000000000000000008152600401610fd290613cd8565b60405180910390fd5b60006008600087815260200190815260200160002060405180608001604052908160008201805461100b9061377f565b80601f01602080910402602001604051908101604052809291908181526020018280546110379061377f565b80156110845780601f1061105957610100808354040283529160200191611084565b820191906000526020600020905b81548152906001019060200180831161106757829003601f168201915b5050505050815260200160018201805461109d9061377f565b80601f01602080910402602001604051908101604052809291908181526020018280546110c99061377f565b80156111165780601f106110eb57610100808354040283529160200191611116565b820191906000526020600020905b8154815290600101906020018083116110f957829003601f168201915b5050505050815260200160028201805461112f9061377f565b80601f016020809104026020016040519081016040528092919081815260200182805461115b9061377f565b80156111a85780601f1061117d576101008083540402835291602001916111a8565b820191906000526020600020905b81548152906001019060200180831161118b57829003601f168201915b50505050508152602001600382015481525050905080600001518160200151826040015183606001519450945094509450509193509193565b60006111ec82611c6d565b9050919050565b60606000600a60008473ffffffffffffffffffffffffffffffffffffffff1673ffffffffffffffffffffffffffffffffffffffff16815260200190815260200160002080548060200260200160405190810160405280929190818152602001828054801561128057602002820191906000526020600020905b81548152602001906001019080831161126c575b505050505090506000815167ffffffffffffffff8111156112a4576112a36130be565b5b6040519080825280602002602001820160405280156112dd57816020015b6112ca612d24565b8152602001906001900390816112c25790505b50905060005b8251811015611515576008600084838151811061130357611302613d64565b5b602002602001015181526020019081526020016000206040518060800160405290816000820180546113349061377f565b80601f01602080910402602001604051908101604052809291908181526020018280546113609061377f565b80156113ad5780601f10611382576101008083540402835291602001916113ad565b820191906000526020600020905b81548152906001019060200180831161139057829003601f168201915b505050505081526020016001820180546113c69061377f565b80601f01602080910402602001604051908101604052809291908181526020018280546113f29061377f565b801561143f5780601f106114145761010080835404028352916020019161143f565b820191906000526020600020905b81548152906001019060200180831161142257829003601f168201915b505050505081526020016002820180546114589061377f565b80601f01602080910402602001604051908101604052809291908181526020018280546114849061377f565b80156114d15780601f106114a6576101008083540402835291602001916114d1565b820191906000526020600020905b8154815290600101906020018083116114b457829003601f168201915b505050505081526020016003820154815250508282815181106114f7576114f6613d64565b5b6020026020010181905250808061150d906139c6565b9150506112e3565b508092505050919050565b60008073ffffffffffffffffffffffffffffffffffffffff168273ffffffffffffffffffffffffffffffffffffffff16036115935760006040517f89c62b6400000000000000000000000000000000000000000000000000000000815260040161158a9190612f71565b60405180910390fd5b600360008373ffffffffffffffffffffffffffffffffffffffff1673ffffffffffffffffffffffffffffffffffffffff168152602001908152602001600020549050919050565b6060806000600754905060008167ffffffffffffffff811115611600576115ff6130be565b5b60405190808252806020026020018201604052801561162e5781602001602082028036833780820191505090505b50905060008267ffffffffffffffff81111561164d5761164c6130be565b5b60405190808252806020026020018201604052801561168657816020015b611673612d24565b81526020019060019003908161166b5790505b5090506000600190505b8381116118de5780836001836116a69190613d93565b815181106116b7576116b6613d64565b5b602002602001018181525050600860008281526020019081526020016000206040518060800160405290816000820180546116f19061377f565b80601f016020809104026020016040519081016040528092919081815260200182805461171d9061377f565b801561176a5780601f1061173f5761010080835404028352916020019161176a565b820191906000526020600020905b81548152906001019060200180831161174d57829003601f168201915b505050505081526020016001820180546117839061377f565b80601f01602080910402602001604051908101604052809291908181526020018280546117af9061377f565b80156117fc5780601f106117d1576101008083540402835291602001916117fc565b820191906000526020600020905b8154815290600101906020018083116117df57829003601f168201915b505050505081526020016002820180546118159061377f565b80601f01602080910402602001604051908101604052809291908181526020018280546118419061377f565b801561188e5780601f106118635761010080835404028352916020019161188e565b820191906000526020600020905b81548152906001019060200180831161187157829003601f168201915b50505050508152602001600382015481525050826001836118af9190613d93565b815181106118c0576118bf613d64565b5b602002602001018190525080806118d6906139c6565b915050611690565b508181945094505050509091565b6060600180546118fb9061377f565b80601f01602080910402602001604051908101604052809291908181526020018280546119279061377f565b80156119745780601f1061194957610100808354040283529160200191611974565b820191906000526020600020905b81548152906001019060200180831161195757829003601f168201915b5050505050905090565b611990611989611d32565b8383612257565b5050565b61199f848484610821565b6119ab848484846123c6565b50505050565b60606119bc82611c6d565b5060006006600084815260200190815260200160002080546119dd9061377f565b80601f0160208091040260200160405190810160405280929190818152602001828054611a099061377f565b8015611a565780601f10611a2b57610100808354040283529160200191611a56565b820191906000526020600020905b815481529060010190602001808311611a3957829003601f168201915b505050505090506000611a6761257d565b90506000815103611a7c578192505050611abf565b600082511115611ab1578082604051602001611a99929190613e03565b60405160208183030381529060405292505050611abf565b611aba84612594565b925050505b919050565b6000600560008473ffffffffffffffffffffffffffffffffffffffff1673ffffffffffffffffffffffffffffffffffffffff16815260200190815260200160002060008373ffffffffffffffffffffffffffffffffffffffff1673ffffffffffffffffffffffffffffffffffffffff16815260200190815260200160002060009054906101000a900460ff16905092915050565b60096020528060005260406000206000915054906101000a900473ffffffffffffffffffffffffffffffffffffffff1681565b60007f80ac58cd000000000000000000000000000000000000000000000000000000007bffffffffffffffffffffffffffffffffffffffffffffffffffffffff1916827bffffffffffffffffffffffffffffffffffffffffffffffffffffffff19161480611c5657507f5b5e139f000000000000000000000000000000000000000000000000000000007bffffffffffffffffffffffffffffffffffffffffffffffffffffffff1916827bffffffffffffffffffffffffffffffffffffffffffffffffffffffff1916145b80611c665750611c65826125fd565b5b9050919050565b600080611c7983612667565b9050600073ffffffffffffffffffffffffffffffffffffffff168173ffffffffffffffffffffffffffffffffffffffff1603611cec57826040517f7e273289000000000000000000000000000000000000000000000000000000008152600401611ce391906132a4565b60405180910390fd5b80915050919050565b60006004600083815260200190815260200160002060009054906101000a900473ffffffffffffffffffffffffffffffffffffffff169050919050565b600033905090565b611d4783838360016126a4565b505050565b600080611d5884612667565b9050600073ffffffffffffffffffffffffffffffffffffffff168373ffffffffffffffffffffffffffffffffffffffff1614611d9a57611d99818486612869565b5b600073ffffffffffffffffffffffffffffffffffffffff168173ffffffffffffffffffffffffffffffffffffffff1614611e2b57611ddc6000856000806126a4565b6001600360008373ffffffffffffffffffffffffffffffffffffffff1673ffffffffffffffffffffffffffffffffffffffff168152602001908152602001600020600082825403925050819055505b600073ffffffffffffffffffffffffffffffffffffffff168573ffffffffffffffffffffffffffffffffffffffff1614611eae576001600360008773ffffffffffffffffffffffffffffffffffffffff1673ffffffffffffffffffffffffffffffffffffffff168152602001908152602001600020600082825401925050819055505b846002600086815260200190815260200160002060006101000a81548173ffffffffffffffffffffffffffffffffffffffff021916908373ffffffffffffffffffffffffffffffffffffffff160217905550838573ffffffffffffffffffffffffffffffffffffffff168273ffffffffffffffffffffffffffffffffffffffff167fddf252ad1be2c89b69c2b068fc378daa952ba7f163c4a11628f55a4df523b3ef60405160405180910390a4809150509392505050565b611f8082826040518060200160405280600081525061292d565b5050565b80600660008481526020019081526020016000209081611fa49190613bba565b507ff8e1a15aba9398e019f0b49df1a4fde98ee17ae345cb5f6b5e2c27f5033e8ce782604051611fd491906132a4565b60405180910390a15050565b600073ffffffffffffffffffffffffffffffffffffffff168273ffffffffffffffffffffffffffffffffffffffff16036120525760006040517f64a0ae920000000000000000000000000000000000000000000000000000000081526004016120499190612f71565b60405180910390fd5b600061206083836000611d4c565b9050600073ffffffffffffffffffffffffffffffffffffffff168173ffffffffffffffffffffffffffffffffffffffff16036120d357816040517f7e2732890000000000000000000000000000000000000000000000000000000081526004016120ca91906132a4565b60405180910390fd5b8373ffffffffffffffffffffffffffffffffffffffff168173ffffffffffffffffffffffffffffffffffffffff1614612147578382826040517f64283d7b00000000000000000000000000000000000000000000000000000000815260040161213e939291906137b0565b60405180910390fd5b50505050565b6000600a60008473ffffffffffffffffffffffffffffffffffffffff1673ffffffffffffffffffffffffffffffffffffffff168152602001908152602001600020905060005b818054905081101561225157828282815481106121b3576121b2613d64565b5b90600052602060002001540361223e5781600183805490506121d59190613d93565b815481106121e6576121e5613d64565b5b906000526020600020015482828154811061220457612203613d64565b5b90600052602060002001819055508180548061222357612222613e27565b5b60019003818190600052602060002001600090559055612251565b8080612249906139c6565b915050612193565b50505050565b600073ffffffffffffffffffffffffffffffffffffffff168273ffffffffffffffffffffffffffffffffffffffff16036122c857816040517f5b08ba180000000000000000000000000000000000000000000000000000000081526004016122bf9190612f71565b60405180910390fd5b80600560008573ffffffffffffffffffffffffffffffffffffffff1673ffffffffffffffffffffffffffffffffffffffff16815260200190815260200160002060008473ffffffffffffffffffffffffffffffffffffffff1673ffffffffffffffffffffffffffffffffffffffff16815260200190815260200160002060006101000a81548160ff0219169083151502179055508173ffffffffffffffffffffffffffffffffffffffff168373ffffffffffffffffffffffffffffffffffffffff167f17307eab39ab6107e8899845ad3d59bd9653f200f220920489ca2b5937696c31836040516123b99190612e00565b60405180910390a3505050565b60008373ffffffffffffffffffffffffffffffffffffffff163b1115612577578273ffffffffffffffffffffffffffffffffffffffff1663150b7a0261240a611d32565b8685856040518563ffffffff1660e01b815260040161242c9493929190613eab565b6020604051808303816000875af192505050801561246857506040513d601f19601f820116820180604052508101906124659190613f0c565b60015b6124ec573d8060008114612498576040519150601f19603f3d011682016040523d82523d6000602084013e61249d565b606091505b5060008151036124e457836040517f64a0ae920000000000000000000000000000000000000000000000000000000081526004016124db9190612f71565b60405180910390fd5b805181602001fd5b63150b7a0260e01b7bffffffffffffffffffffffffffffffffffffffffffffffffffffffff1916817bffffffffffffffffffffffffffffffffffffffffffffffffffffffff19161461257557836040517f64a0ae9200000000000000000000000000000000000000000000000000000000815260040161256c9190612f71565b60405180910390fd5b505b50505050565b606060405180602001604052806000815250905090565b606061259f82611c6d565b5060006125aa61257d565b905060008151116125ca57604051806020016040528060008152506125f5565b806125d484612949565b6040516020016125e5929190613e03565b6040516020818303038152906040525b915050919050565b60007f01ffc9a7000000000000000000000000000000000000000000000000000000007bffffffffffffffffffffffffffffffffffffffffffffffffffffffff1916827bffffffffffffffffffffffffffffffffffffffffffffffffffffffff1916149050919050565b60006002600083815260200190815260200160002060009054906101000a900473ffffffffffffffffffffffffffffffffffffffff169050919050565b80806126dd5750600073ffffffffffffffffffffffffffffffffffffffff168273ffffffffffffffffffffffffffffffffffffffff1614155b156128115760006126ed84611c6d565b9050600073ffffffffffffffffffffffffffffffffffffffff168373ffffffffffffffffffffffffffffffffffffffff161415801561275857508273ffffffffffffffffffffffffffffffffffffffff168173ffffffffffffffffffffffffffffffffffffffff1614155b801561276b57506127698184611ac4565b155b156127ad57826040517fa9fbf51f0000000000000000000000000000000000000000000000000000000081526004016127a49190612f71565b60405180910390fd5b811561280f57838573ffffffffffffffffffffffffffffffffffffffff168273ffffffffffffffffffffffffffffffffffffffff167f8c5be1e5ebec7d5bd14f71427d1e84f3dd0314c0f7b2291e5b200ac8c7c3b92560405160405180910390a45b505b836004600085815260200190815260200160002060006101000a81548173ffffffffffffffffffffffffffffffffffffffff021916908373ffffffffffffffffffffffffffffffffffffffff16021790555050505050565b612874838383612a17565b61292857600073ffffffffffffffffffffffffffffffffffffffff168373ffffffffffffffffffffffffffffffffffffffff16036128e957806040517f7e2732890000000000000000000000000000000000000000000000000000000081526004016128e091906132a4565b60405180910390fd5b81816040517f177e802f00000000000000000000000000000000000000000000000000000000815260040161291f929190613f39565b60405180910390fd5b505050565b6129378383612ad8565b61294460008484846123c6565b505050565b60606000600161295884612bd1565b01905060008167ffffffffffffffff811115612977576129766130be565b5b6040519080825280601f01601f1916602001820160405280156129a95781602001600182028036833780820191505090505b509050600082602001820190505b600115612a0c578080600190039150507f3031323334353637383961626364656600000000000000000000000000000000600a86061a8153600a8581612a00576129ff613f62565b5b049450600085036129b7575b819350505050919050565b60008073ffffffffffffffffffffffffffffffffffffffff168373ffffffffffffffffffffffffffffffffffffffff1614158015612acf57508273ffffffffffffffffffffffffffffffffffffffff168473ffffffffffffffffffffffffffffffffffffffff161480612a905750612a8f8484611ac4565b5b80612ace57508273ffffffffffffffffffffffffffffffffffffffff16612ab683611cf5565b73ffffffffffffffffffffffffffffffffffffffff16145b5b90509392505050565b600073ffffffffffffffffffffffffffffffffffffffff168273ffffffffffffffffffffffffffffffffffffffff1603612b4a5760006040517f64a0ae92000000000000000000000000000000000000000000000000000000008152600401612b419190612f71565b60405180910390fd5b6000612b5883836000611d4c565b9050600073ffffffffffffffffffffffffffffffffffffffff168173ffffffffffffffffffffffffffffffffffffffff1614612bcc5760006040517f73c6ac6e000000000000000000000000000000000000000000000000000000008152600401612bc39190612f71565b60405180910390fd5b505050565b600080600090507a184f03e93ff9f4daa797ed6e38ed64bf6a1f0100000000000000008310612c2f577a184f03e93ff9f4daa797ed6e38ed64bf6a1f0100000000000000008381612c2557612c24613f62565b5b0492506040810190505b6d04ee2d6d415b85acef81000000008310612c6c576d04ee2d6d415b85acef81000000008381612c6257612c61613f62565b5b0492506020810190505b662386f26fc100008310612c9b57662386f26fc100008381612c9157612c90613f62565b5b0492506010810190505b6305f5e1008310612cc4576305f5e1008381612cba57612cb9613f62565b5b0492506008810190505b6127108310612ce9576127108381612cdf57612cde613f62565b5b0492506004810190505b60648310612d0c5760648381612d0257612d01613f62565b5b0492506002810190505b600a8310612d1b576001810190505b80915050919050565b6040518060800160405280606081526020016060815260200160608152602001600081525090565b6000604051905090565b600080fd5b600080fd5b60007fffffffff0000000000000000000000000000000000000000000000000000000082169050919050565b612d9581612d60565b8114612da057600080fd5b50565b600081359050612db281612d8c565b92915050565b600060208284031215612dce57612dcd612d56565b5b6000612ddc84828501612da3565b91505092915050565b60008115159050919050565b612dfa81612de5565b82525050565b6000602082019050612e156000830184612df1565b92915050565b600081519050919050565b600082825260208201905092915050565b60005b83811015612e55578082015181840152602081019050612e3a565b60008484015250505050565b6000601f19601f8301169050919050565b6000612e7d82612e1b565b612e878185612e26565b9350612e97818560208601612e37565b612ea081612e61565b840191505092915050565b60006020820190508181036000830152612ec58184612e72565b905092915050565b6000819050919050565b612ee081612ecd565b8114612eeb57600080fd5b50565b600081359050612efd81612ed7565b92915050565b600060208284031215612f1957612f18612d56565b5b6000612f2784828501612eee565b91505092915050565b600073ffffffffffffffffffffffffffffffffffffffff82169050919050565b6000612f5b82612f30565b9050919050565b612f6b81612f50565b82525050565b6000602082019050612f866000830184612f62565b92915050565b612f9581612f50565b8114612fa057600080fd5b50565b600081359050612fb281612f8c565b92915050565b60008060408385031215612fcf57612fce612d56565b5b6000612fdd85828601612fa3565b9250506020612fee85828601612eee565b9150509250929050565b61300181612ecd565b82525050565b600060808201905081810360008301526130218187612e72565b905081810360208301526130358186612e72565b905081810360408301526130498185612e72565b90506130586060830184612ff8565b95945050505050565b60008060006060848603121561307a57613079612d56565b5b600061308886828701612fa3565b935050602061309986828701612fa3565b92505060406130aa86828701612eee565b9150509250925092565b600080fd5b600080fd5b7f4e487b7100000000000000000000000000000000000000000000000000000000600052604160045260246000fd5b6130f682612e61565b810181811067ffffffffffffffff82111715613115576131146130be565b5b80604052505050565b6000613128612d4c565b905061313482826130ed565b919050565b600067ffffffffffffffff821115613154576131536130be565b5b61315d82612e61565b9050602081019050919050565b82818337600083830152505050565b600061318c61318784613139565b61311e565b9050828152602081018484840111156131a8576131a76130b9565b5b6131b384828561316a565b509392505050565b600082601f8301126131d0576131cf6130b4565b5b81356131e0848260208601613179565b91505092915050565b6000806000806080858703121561320357613202612d56565b5b600085013567ffffffffffffffff81111561322157613220612d5b565b5b61322d878288016131bb565b945050602085013567ffffffffffffffff81111561324e5761324d612d5b565b5b61325a878288016131bb565b935050604085013567ffffffffffffffff81111561327b5761327a612d5b565b5b613287878288016131bb565b925050606061329887828801612eee565b91505092959194509250565b60006020820190506132b96000830184612ff8565b92915050565b6000602082840312156132d5576132d4612d56565b5b60006132e384828501612fa3565b91505092915050565b600081519050919050565b600082825260208201905092915050565b6000819050602082019050919050565b600082825260208201905092915050565b600061333482612e1b565b61333e8185613318565b935061334e818560208601612e37565b61335781612e61565b840191505092915050565b61336b81612ecd565b82525050565b6000608083016000830151848203600086015261338e8282613329565b915050602083015184820360208601526133a88282613329565b915050604083015184820360408601526133c28282613329565b91505060608301516133d76060860182613362565b508091505092915050565b60006133ee8383613371565b905092915050565b6000602082019050919050565b600061340e826132ec565b61341881856132f7565b93508360208202850161342a85613308565b8060005b85811015613466578484038952815161344785826133e2565b9450613452836133f6565b925060208a0199505060018101905061342e565b50829750879550505050505092915050565b600060208201905081810360008301526134928184613403565b905092915050565b600081519050919050565b600082825260208201905092915050565b6000819050602082019050919050565b60006134d28383613362565b60208301905092915050565b6000602082019050919050565b60006134f68261349a565b61350081856134a5565b935061350b836134b6565b8060005b8381101561353c57815161352388826134c6565b975061352e836134de565b92505060018101905061350f565b5085935050505092915050565b6000604082019050818103600083015261356381856134eb565b905081810360208301526135778184613403565b90509392505050565b61358981612de5565b811461359457600080fd5b50565b6000813590506135a681613580565b92915050565b600080604083850312156135c3576135c2612d56565b5b60006135d185828601612fa3565b92505060206135e285828601613597565b9150509250929050565b600067ffffffffffffffff821115613607576136066130be565b5b61361082612e61565b9050602081019050919050565b600061363061362b846135ec565b61311e565b90508281526020810184848401111561364c5761364b6130b9565b5b61365784828561316a565b509392505050565b600082601f830112613674576136736130b4565b5b813561368484826020860161361d565b91505092915050565b600080600080608085870312156136a7576136a6612d56565b5b60006136b587828801612fa3565b94505060206136c687828801612fa3565b93505060406136d787828801612eee565b925050606085013567ffffffffffffffff8111156136f8576136f7612d5b565b5b6137048782880161365f565b91505092959194509250565b6000806040838503121561372757613726612d56565b5b600061373585828601612fa3565b925050602061374685828601612fa3565b9150509250929050565b7f4e487b7100000000000000000000000000000000000000000000000000000000600052602260045260246000fd5b6000600282049050600182168061379757607f821691505b6020821081036137aa576137a9613750565b5b50919050565b60006060820190506137c56000830186612f62565b6137d26020830185612ff8565b6137df6040830184612f62565b949350505050565b7f50726f6a656374206e616d652069732072657175697265640000000000000000600082015250565b600061381d601883612e26565b9150613828826137e7565b602082019050919050565b6000602082019050818103600083015261384c81613810565b9050919050565b7f50726f6a656374206465736372697074696f6e20697320726571756972656400600082015250565b6000613889601f83612e26565b915061389482613853565b602082019050919050565b600060208201905081810360008301526138b88161387c565b9050919050565b7f4950465320686173682069732072657175697265640000000000000000000000600082015250565b60006138f5601583612e26565b9150613900826138bf565b602082019050919050565b60006020820190508181036000830152613924816138e8565b9050919050565b7f5072696365206d7573742062652067726561746572207468616e203020776569600082015250565b6000613961602083612e26565b915061396c8261392b565b602082019050919050565b6000602082019050818103600083015261399081613954565b9050919050565b7f4e487b7100000000000000000000000000000000000000000000000000000000600052601160045260246000fd5b60006139d182612ecd565b91507fffffffffffffffffffffffffffffffffffffffffffffffffffffffffffffffff8203613a0357613a02613997565b5b600182019050919050565b60008190508160005260206000209050919050565b60006020601f8301049050919050565b600082821b905092915050565b600060088302613a707fffffffffffffffffffffffffffffffffffffffffffffffffffffffffffffffff82613a33565b613a7a8683613a33565b95508019841693508086168417925050509392505050565b6000819050919050565b6000613ab7613ab2613aad84612ecd565b613a92565b612ecd565b9050919050565b6000819050919050565b613ad183613a9c565b613ae5613add82613abe565b848454613a40565b825550505050565b600090565b613afa613aed565b613b05818484613ac8565b505050565b5b81811015613b2957613b1e600082613af2565b600181019050613b0b565b5050565b601f821115613b6e57613b3f81613a0e565b613b4884613a23565b81016020851015613b57578190505b613b6b613b6385613a23565b830182613b0a565b50505b505050565b600082821c905092915050565b6000613b9160001984600802613b73565b1980831691505092915050565b6000613baa8383613b80565b9150826002028217905092915050565b613bc382612e1b565b67ffffffffffffffff811115613bdc57613bdb6130be565b5b613be6825461377f565b613bf1828285613b2d565b600060209050601f831160018114613c245760008415613c12578287015190505b613c1c8582613b9e565b865550613c84565b601f198416613c3286613a0e565b60005b82811015613c5a57848901518255600182019150602085019450602081019050613c35565b86831015613c775784890151613c73601f891682613b80565b8355505b6001600288020188555050505b505050505050565b7f4e465420646f6573206e6f742065786973740000000000000000000000000000600082015250565b6000613cc2601283612e26565b9150613ccd82613c8c565b602082019050919050565b60006020820190508181036000830152613cf181613cb5565b9050919050565b7f496e73756666696369656e742045746865722073656e74000000000000000000600082015250565b6000613d2e601783612e26565b9150613d3982613cf8565b602082019050919050565b60006020820190508181036000830152613d5d81613d21565b9050919050565b7f4e487b7100000000000000000000000000000000000000000000000000000000600052603260045260246000fd5b6000613d9e82612ecd565b9150613da983612ecd565b9250828203905081811115613dc157613dc0613997565b5b92915050565b600081905092915050565b6000613ddd82612e1b565b613de78185613dc7565b9350613df7818560208601612e37565b80840191505092915050565b6000613e0f8285613dd2565b9150613e1b8284613dd2565b91508190509392505050565b7f4e487b7100000000000000000000000000000000000000000000000000000000600052603160045260246000fd5b600081519050919050565b600082825260208201905092915050565b6000613e7d82613e56565b613e878185613e61565b9350613e97818560208601612e37565b613ea081612e61565b840191505092915050565b6000608082019050613ec06000830187612f62565b613ecd6020830186612f62565b613eda6040830185612ff8565b8181036060830152613eec8184613e72565b905095945050505050565b600081519050613f0681612d8c565b92915050565b600060208284031215613f2257613f21612d56565b5b6000613f3084828501613ef7565b91505092915050565b6000604082019050613f4e6000830185612f62565b613f5b6020830184612ff8565b9392505050565b7f4e487b7100000000000000000000000000000000000000000000000000000000600052601260045260246000fdfea2646970667358221220048ba7f7daf007ad16a2c590c78c1f07283e7eaee9daef9ad6c0fc6c42f05f6664736f6c63430008140033",
  "linkReferences": {},
  "deployedLinkReferences": {}
}