{
  "_format": "hh-sol-artifact-1",
  "contractName": "ProjectSubmission",
  "sourceName": "contracts/ProjectSubmission.sol",
  "abi": [
    {
      "inputs": [],
      "stateMutability": "nonpayable",
      "type": "constructor"
    },
    {
      "anonymous": false,
      "inputs": [
        {
          "indexed": false,
          "internalType": "uint256",
          "name": "projectId",
          "type": "uint256"
        },
        {
          "indexed": true,
          "internalType": "address",
          "name": "submitter",
          "type": "address"
        },
        {
          "indexed": false,
          "internalType": "uint256",
          "name": "carbonTokenAmount",
          "type": "uint256"
        }
      ],
      "name": "ProjectApproved",
      "type": "event"
    },
    {
      "anonymous": false,
      "inputs": [
        {
          "indexed": false,
          "internalType": "uint256",
          "name": "projectId",
          "type": "uint256"
        },
        {
          "indexed": true,
          "internalType": "address",
          "name": "submitter",
          "type": "address"
        }
      ],
      "name": "ProjectRejected",
      "type": "event"
    },
    {
      "anonymous": false,
      "inputs": [
        {
          "indexed": true,
          "internalType": "address",
          "name": "submitter",
          "type": "address"
        },
        {
          "indexed": false,
          "internalType": "uint256",
          "name": "projectId",
          "type": "uint256"
        },
        {
          "indexed": false,
          "internalType": "string",
          "name": "pinataHash",
          "type": "string"
        },
        {
          "indexed": false,
          "internalType": "uint256",
          "name": "carbonTokenAmount",
          "type": "uint256"
        }
      ],
      "name": "ProjectSubmitted",
      "type": "event"
    },
    {
      "inputs": [],
      "name": "admin",
      "outputs": [
        {
          "internalType": "address",
          "name": "",
          "type": "address"
        }
      ],
      "stateMutability": "view",
      "type": "function"
    },
    {
      "inputs": [
        {
          "internalType": "uint256",
          "name": "_projectId",
          "type": "uint256"
        }
      ],
      "name": "approveProject",
      "outputs": [],
      "stateMutability": "nonpayable",
      "type": "function"
    },
    {
      "inputs": [],
      "name": "getProjectCount",
      "outputs": [
        {
          "internalType": "uint256",
          "name": "",
          "type": "uint256"
        }
      ],
      "stateMutability": "view",
      "type": "function"
    },
    {
      "inputs": [
        {
          "internalType": "uint256",
          "name": "",
          "type": "uint256"
        }
      ],
      "name": "projects",
      "outputs": [
        {
          "internalType": "address",
          "name": "submitter",
          "type": "address"
        },
        {
          "internalType": "string",
          "name": "pinataHash",
          "type": "string"
        },
        {
          "internalType": "uint256",
          "name": "carbonTokenAmount",
          "type": "uint256"
        },
        {
          "internalType": "bool",
          "name": "approved",
          "type": "bool"
        },
        {
          "internalType": "bool",
          "name": "reviewed",
          "type": "bool"
        }
      ],
      "stateMutability": "view",
      "type": "function"
    },
    {
      "inputs": [
        {
          "internalType": "uint256",
          "name": "_projectId",
          "type": "uint256"
        }
      ],
      "name": "rejectProject",
      "outputs": [],
      "stateMutability": "nonpayable",
      "type": "function"
    },
    {
      "inputs": [
        {
          "internalType": "string",
          "name": "_pinataHash",
          "type": "string"
        },
        {
          "internalType": "uint256",
          "name": "_carbonTokenAmount",
          "type": "uint256"
        }
      ],
      "name": "submitProject",
      "outputs": [],
      "stateMutability": "nonpayable",
      "type": "function"
    },
    {
      "inputs": [
        {
          "internalType": "address",
          "name": "newAdmin",
          "type": "address"
        }
      ],
      "name": "transferOwnership",
      "outputs": [],
      "stateMutability": "nonpayable",
      "type": "function"
    },
    {
      "inputs": [
        {
          "internalType": "uint256",
          "name": "_projectId",
          "type": "uint256"
        }
      ],
      "name": "viewProject",
      "outputs": [
        {
          "internalType": "address",
          "name": "",
          "type": "address"
        },
        {
          "internalType": "string",
          "name": "",
          "type": "string"
        },
        {
          "internalType": "uint256",
          "name": "",
          "type": "uint256"
        },
        {
          "internalType": "bool",
          "name": "",
          "type": "bool"
        },
        {
          "internalType": "bool",
          "name": "",
          "type": "bool"
        }
      ],
      "stateMutability": "view",
      "type": "function"
    },
    {
      "inputs": [
        {
          "internalType": "address",
          "name": "_user",
          "type": "address"
        }
      ],
      "name": "viewUserProjects",
      "outputs": [
        {
          "components": [
            {
              "internalType": "address",
              "name": "submitter",
              "type": "address"
            },
            {
              "internalType": "string",
              "name": "pinataHash",
              "type": "string"
            },
            {
              "internalType": "uint256",
              "name": "carbonTokenAmount",
              "type": "uint256"
            },
            {
              "internalType": "bool",
              "name": "approved",
              "type": "bool"
            },
            {
              "internalType": "bool",
              "name": "reviewed",
              "type": "bool"
            }
          ],
          "internalType": "struct ProjectSubmission.Project[]",
          "name": "",
          "type": "tuple[]"
        }
      ],
      "stateMutability": "view",
      "type": "function"
    }
  ],
  "bytecode": "0x608060405234801561001057600080fd5b50336000806101000a81548173ffffffffffffffffffffffffffffffffffffffff021916908373ffffffffffffffffffffffffffffffffffffffff160217905550611cba806100606000396000f3fe608060405234801561001057600080fd5b50600436106100935760003560e01c8063a6b0ad5311610066578063a6b0ad5314610136578063e437549214610152578063f2fde38b14610186578063f851a440146101a2578063fc69d836146101c057610093565b8063107046bd146100985780633bcff3b0146100cc57806369b04f19146100ea5780639cb82b7e14610106575b600080fd5b6100b260048036038101906100ad9190610ff8565b6101dc565b6040516100c3959493929190611120565b60405180910390f35b6100d46102e4565b6040516100e1919061117a565b60405180910390f35b61010460048036038101906100ff9190610ff8565b6102f1565b005b610120600480360381019061011b91906111c1565b6104ee565b60405161012d919061139d565b60405180910390f35b610150600480360381019061014b91906114f4565b61081e565b005b61016c60048036038101906101679190610ff8565b610a28565b60405161017d959493929190611120565b60405180910390f35b6101a0600480360381019061019b91906111c1565b610bfe565b005b6101aa610d3e565b6040516101b79190611550565b60405180910390f35b6101da60048036038101906101d59190610ff8565b610d62565b005b600181815481106101ec57600080fd5b90600052602060002090600402016000915090508060000160009054906101000a900473ffffffffffffffffffffffffffffffffffffffff16908060010180546102359061159a565b80601f01602080910402602001604051908101604052809291908181526020018280546102619061159a565b80156102ae5780601f10610283576101008083540402835291602001916102ae565b820191906000526020600020905b81548152906001019060200180831161029157829003601f168201915b5050505050908060020154908060030160009054906101000a900460ff16908060030160019054906101000a900460ff16905085565b6000600180549050905090565b60008054906101000a900473ffffffffffffffffffffffffffffffffffffffff1673ffffffffffffffffffffffffffffffffffffffff163373ffffffffffffffffffffffffffffffffffffffff161461037f576040517f08c379a00000000000000000000000000000000000000000000000000000000081526004016103769061163d565b60405180910390fd5b60018054905081106103c6576040517f08c379a00000000000000000000000000000000000000000000000000000000081526004016103bd906116a9565b60405180910390fd5b6000600182815481106103dc576103db6116c9565b5b906000526020600020906004020190508060030160019054906101000a900460ff161561043e576040517f08c379a000000000000000000000000000000000000000000000000000000000815260040161043590611744565b60405180910390fd5b60008160030160006101000a81548160ff02191690831515021790555060018160030160016101000a81548160ff0219169083151502179055508060000160009054906101000a900473ffffffffffffffffffffffffffffffffffffffff1673ffffffffffffffffffffffffffffffffffffffff167f2455cf2c8889d7bb22a92851d7e1c3be5f44c5e3657dca1241c26857e3da95a5836040516104e2919061117a565b60405180910390a25050565b60606000805b60018054905081101561059b578373ffffffffffffffffffffffffffffffffffffffff166001828154811061052c5761052b6116c9565b5b906000526020600020906004020160000160009054906101000a900473ffffffffffffffffffffffffffffffffffffffff1673ffffffffffffffffffffffffffffffffffffffff160361058857818061058490611793565b9250505b808061059390611793565b9150506104f4565b5060008167ffffffffffffffff8111156105b8576105b76113c9565b5b6040519080825280602002602001820160405280156105f157816020015b6105de610f65565b8152602001906001900390816105d65790505b5090506000805b600180549050811015610812578573ffffffffffffffffffffffffffffffffffffffff16600182815481106106305761062f6116c9565b5b906000526020600020906004020160000160009054906101000a900473ffffffffffffffffffffffffffffffffffffffff1673ffffffffffffffffffffffffffffffffffffffff16036107ff5760018181548110610691576106906116c9565b5b90600052602060002090600402016040518060a00160405290816000820160009054906101000a900473ffffffffffffffffffffffffffffffffffffffff1673ffffffffffffffffffffffffffffffffffffffff1673ffffffffffffffffffffffffffffffffffffffff1681526020016001820180546107109061159a565b80601f016020809104026020016040519081016040528092919081815260200182805461073c9061159a565b80156107895780601f1061075e57610100808354040283529160200191610789565b820191906000526020600020905b81548152906001019060200180831161076c57829003601f168201915b50505050508152602001600282015481526020016003820160009054906101000a900460ff161515151581526020016003820160019054906101000a900460ff1615151515815250508383815181106107e5576107e46116c9565b5b602002602001018190525081806107fb90611793565b9250505b808061080a90611793565b9150506105f8565b50819350505050919050565b6000825111610862576040517f08c379a000000000000000000000000000000000000000000000000000000000815260040161085990611827565b60405180910390fd5b600081116108a5576040517f08c379a000000000000000000000000000000000000000000000000000000000815260040161089c906118b9565b60405180910390fd5b60016040518060a001604052803373ffffffffffffffffffffffffffffffffffffffff16815260200184815260200183815260200160001515815260200160001515815250908060018154018082558091505060019003906000526020600020906004020160009091909190915060008201518160000160006101000a81548173ffffffffffffffffffffffffffffffffffffffff021916908373ffffffffffffffffffffffffffffffffffffffff160217905550602082015181600101908161096f9190611a85565b506040820151816002015560608201518160030160006101000a81548160ff02191690831515021790555060808201518160030160016101000a81548160ff02191690831515021790555050506000600180805490506109cf9190611b57565b90503373ffffffffffffffffffffffffffffffffffffffff167f8f0f14212881ec65136c584c035274888d2c601945aeb2d0b6e095a3e39ee765828585604051610a1b93929190611b8b565b60405180910390a2505050565b6000606060008060006001805490508610610a78576040517f08c379a0000000000000000000000000000000000000000000000000000000008152600401610a6f906116a9565b60405180910390fd5b600060018781548110610a8e57610a8d6116c9565b5b90600052602060002090600402016040518060a00160405290816000820160009054906101000a900473ffffffffffffffffffffffffffffffffffffffff1673ffffffffffffffffffffffffffffffffffffffff1673ffffffffffffffffffffffffffffffffffffffff168152602001600182018054610b0d9061159a565b80601f0160208091040260200160405190810160405280929190818152602001828054610b399061159a565b8015610b865780601f10610b5b57610100808354040283529160200191610b86565b820191906000526020600020905b815481529060010190602001808311610b6957829003601f168201915b50505050508152602001600282015481526020016003820160009054906101000a900460ff161515151581526020016003820160019054906101000a900460ff161515151581525050905080600001518160200151826040015183606001518460800151955095509550955095505091939590929450565b60008054906101000a900473ffffffffffffffffffffffffffffffffffffffff1673ffffffffffffffffffffffffffffffffffffffff163373ffffffffffffffffffffffffffffffffffffffff1614610c8c576040517f08c379a0000000000000000000000000000000000000000000000000000000008152600401610c839061163d565b60405180910390fd5b600073ffffffffffffffffffffffffffffffffffffffff168173ffffffffffffffffffffffffffffffffffffffff1603610cfb576040517f08c379a0000000000000000000000000000000000000000000000000000000008152600401610cf290611c3b565b60405180910390fd5b806000806101000a81548173ffffffffffffffffffffffffffffffffffffffff021916908373ffffffffffffffffffffffffffffffffffffffff16021790555050565b60008054906101000a900473ffffffffffffffffffffffffffffffffffffffff1681565b60008054906101000a900473ffffffffffffffffffffffffffffffffffffffff1673ffffffffffffffffffffffffffffffffffffffff163373ffffffffffffffffffffffffffffffffffffffff1614610df0576040517f08c379a0000000000000000000000000000000000000000000000000000000008152600401610de79061163d565b60405180910390fd5b6001805490508110610e37576040517f08c379a0000000000000000000000000000000000000000000000000000000008152600401610e2e906116a9565b60405180910390fd5b600060018281548110610e4d57610e4c6116c9565b5b906000526020600020906004020190508060030160019054906101000a900460ff1615610eaf576040517f08c379a0000000000000000000000000000000000000000000000000000000008152600401610ea690611744565b60405180910390fd5b60018160030160006101000a81548160ff02191690831515021790555060018160030160016101000a81548160ff0219169083151502179055508060000160009054906101000a900473ffffffffffffffffffffffffffffffffffffffff1673ffffffffffffffffffffffffffffffffffffffff167f74f80ffca0e020be3e7805e2a2810b062862641047e86356fe10043d9b43b89d838360020154604051610f59929190611c5b565b60405180910390a25050565b6040518060a00160405280600073ffffffffffffffffffffffffffffffffffffffff16815260200160608152602001600081526020016000151581526020016000151581525090565b6000604051905090565b600080fd5b600080fd5b6000819050919050565b610fd581610fc2565b8114610fe057600080fd5b50565b600081359050610ff281610fcc565b92915050565b60006020828403121561100e5761100d610fb8565b5b600061101c84828501610fe3565b91505092915050565b600073ffffffffffffffffffffffffffffffffffffffff82169050919050565b600061105082611025565b9050919050565b61106081611045565b82525050565b600081519050919050565b600082825260208201905092915050565b60005b838110156110a0578082015181840152602081019050611085565b60008484015250505050565b6000601f19601f8301169050919050565b60006110c882611066565b6110d28185611071565b93506110e2818560208601611082565b6110eb816110ac565b840191505092915050565b6110ff81610fc2565b82525050565b60008115159050919050565b61111a81611105565b82525050565b600060a0820190506111356000830188611057565b818103602083015261114781876110bd565b905061115660408301866110f6565b6111636060830185611111565b6111706080830184611111565b9695505050505050565b600060208201905061118f60008301846110f6565b92915050565b61119e81611045565b81146111a957600080fd5b50565b6000813590506111bb81611195565b92915050565b6000602082840312156111d7576111d6610fb8565b5b60006111e5848285016111ac565b91505092915050565b600081519050919050565b600082825260208201905092915050565b6000819050602082019050919050565b61122381611045565b82525050565b600082825260208201905092915050565b600061124582611066565b61124f8185611229565b935061125f818560208601611082565b611268816110ac565b840191505092915050565b61127c81610fc2565b82525050565b61128b81611105565b82525050565b600060a0830160008301516112a9600086018261121a565b50602083015184820360208601526112c1828261123a565b91505060408301516112d66040860182611273565b5060608301516112e96060860182611282565b5060808301516112fc6080860182611282565b508091505092915050565b60006113138383611291565b905092915050565b6000602082019050919050565b6000611333826111ee565b61133d81856111f9565b93508360208202850161134f8561120a565b8060005b8581101561138b578484038952815161136c8582611307565b94506113778361131b565b925060208a01995050600181019050611353565b50829750879550505050505092915050565b600060208201905081810360008301526113b78184611328565b905092915050565b600080fd5b600080fd5b7f4e487b7100000000000000000000000000000000000000000000000000000000600052604160045260246000fd5b611401826110ac565b810181811067ffffffffffffffff821117156114205761141f6113c9565b5b80604052505050565b6000611433610fae565b905061143f82826113f8565b919050565b600067ffffffffffffffff82111561145f5761145e6113c9565b5b611468826110ac565b9050602081019050919050565b82818337600083830152505050565b600061149761149284611444565b611429565b9050828152602081018484840111156114b3576114b26113c4565b5b6114be848285611475565b509392505050565b600082601f8301126114db576114da6113bf565b5b81356114eb848260208601611484565b91505092915050565b6000806040838503121561150b5761150a610fb8565b5b600083013567ffffffffffffffff81111561152957611528610fbd565b5b611535858286016114c6565b925050602061154685828601610fe3565b9150509250929050565b60006020820190506115656000830184611057565b92915050565b7f4e487b7100000000000000000000000000000000000000000000000000000000600052602260045260246000fd5b600060028204905060018216806115b257607f821691505b6020821081036115c5576115c461156b565b5b50919050565b7f4f6e6c79207468652061646d696e2063616e20706572666f726d20746869732060008201527f616374696f6e2e00000000000000000000000000000000000000000000000000602082015250565b6000611627602783611071565b9150611632826115cb565b604082019050919050565b600060208201905081810360008301526116568161161a565b9050919050565b7f496e76616c69642070726f6a6563742049442e00000000000000000000000000600082015250565b6000611693601383611071565b915061169e8261165d565b602082019050919050565b600060208201905081810360008301526116c281611686565b9050919050565b7f4e487b7100000000000000000000000000000000000000000000000000000000600052603260045260246000fd5b7f50726f6a65637420616c72656164792072657669657765642e00000000000000600082015250565b600061172e601983611071565b9150611739826116f8565b602082019050919050565b6000602082019050818103600083015261175d81611721565b9050919050565b7f4e487b7100000000000000000000000000000000000000000000000000000000600052601160045260246000fd5b600061179e82610fc2565b91507fffffffffffffffffffffffffffffffffffffffffffffffffffffffffffffffff82036117d0576117cf611764565b5b600182019050919050565b7f50696e61746120686173682063616e6e6f7420626520656d7074792e00000000600082015250565b6000611811601c83611071565b915061181c826117db565b602082019050919050565b6000602082019050818103600083015261184081611804565b9050919050565b7f52657175657374656420636172626f6e20746f6b656e20616d6f756e74206d7560008201527f73742062652067726561746572207468616e20302e0000000000000000000000602082015250565b60006118a3603583611071565b91506118ae82611847565b604082019050919050565b600060208201905081810360008301526118d281611896565b9050919050565b60008190508160005260206000209050919050565b60006020601f8301049050919050565b600082821b905092915050565b60006008830261193b7fffffffffffffffffffffffffffffffffffffffffffffffffffffffffffffffff826118fe565b61194586836118fe565b95508019841693508086168417925050509392505050565b6000819050919050565b600061198261197d61197884610fc2565b61195d565b610fc2565b9050919050565b6000819050919050565b61199c83611967565b6119b06119a882611989565b84845461190b565b825550505050565b600090565b6119c56119b8565b6119d0818484611993565b505050565b5b818110156119f4576119e96000826119bd565b6001810190506119d6565b5050565b601f821115611a3957611a0a816118d9565b611a13846118ee565b81016020851015611a22578190505b611a36611a2e856118ee565b8301826119d5565b50505b505050565b600082821c905092915050565b6000611a5c60001984600802611a3e565b1980831691505092915050565b6000611a758383611a4b565b9150826002028217905092915050565b611a8e82611066565b67ffffffffffffffff811115611aa757611aa66113c9565b5b611ab1825461159a565b611abc8282856119f8565b600060209050601f831160018114611aef5760008415611add578287015190505b611ae78582611a69565b865550611b4f565b601f198416611afd866118d9565b60005b82811015611b2557848901518255600182019150602085019450602081019050611b00565b86831015611b425784890151611b3e601f891682611a4b565b8355505b6001600288020188555050505b505050505050565b6000611b6282610fc2565b9150611b6d83610fc2565b9250828203905081811115611b8557611b84611764565b5b92915050565b6000606082019050611ba060008301866110f6565b8181036020830152611bb281856110bd565b9050611bc160408301846110f6565b949350505050565b7f4e65772061646d696e20616464726573732063616e6e6f74206265207a65726f60008201527f2e00000000000000000000000000000000000000000000000000000000000000602082015250565b6000611c25602183611071565b9150611c3082611bc9565b604082019050919050565b60006020820190508181036000830152611c5481611c18565b9050919050565b6000604082019050611c7060008301856110f6565b611c7d60208301846110f6565b939250505056fea264697066735822122056b9963264e5ed64e1aecbb19b36c9232dcf124572af7f5fff6f4c6b622d4ec564736f6c63430008140033",
  "linkReferences": {},
  "deployedLinkReferences": {}
}