{
  "_format": "hh-sol-artifact-1",
  "contractName": "ProjectDonation",
  "sourceName": "contracts/ProjectDonation.sol",
  "abi": [
    {
      "inputs": [
        {
          "internalType": "address",
          "name": "spender",
          "type": "address"
        },
        {
          "internalType": "uint256",
          "name": "allowance",
          "type": "uint256"
        },
        {
          "internalType": "uint256",
          "name": "needed",
          "type": "uint256"
        }
      ],
      "name": "ERC20InsufficientAllowance",
      "type": "error"
    },
    {
      "inputs": [
        {
          "internalType": "address",
          "name": "sender",
          "type": "address"
        },
        {
          "internalType": "uint256",
          "name": "balance",
          "type": "uint256"
        },
        {
          "internalType": "uint256",
          "name": "needed",
          "type": "uint256"
        }
      ],
      "name": "ERC20InsufficientBalance",
      "type": "error"
    },
    {
      "inputs": [
        {
          "internalType": "address",
          "name": "approver",
          "type": "address"
        }
      ],
      "name": "ERC20InvalidApprover",
      "type": "error"
    },
    {
      "inputs": [
        {
          "internalType": "address",
          "name": "receiver",
          "type": "address"
        }
      ],
      "name": "ERC20InvalidReceiver",
      "type": "error"
    },
    {
      "inputs": [
        {
          "internalType": "address",
          "name": "sender",
          "type": "address"
        }
      ],
      "name": "ERC20InvalidSender",
      "type": "error"
    },
    {
      "inputs": [
        {
          "internalType": "address",
          "name": "spender",
          "type": "address"
        }
      ],
      "name": "ERC20InvalidSpender",
      "type": "error"
    },
    {
      "inputs": [
        {
          "internalType": "address",
          "name": "owner",
          "type": "address"
        }
      ],
      "name": "OwnableInvalidOwner",
      "type": "error"
    },
    {
      "inputs": [
        {
          "internalType": "address",
          "name": "account",
          "type": "address"
        }
      ],
      "name": "OwnableUnauthorizedAccount",
      "type": "error"
    },
    {
      "anonymous": false,
      "inputs": [
        {
          "indexed": true,
          "internalType": "address",
          "name": "owner",
          "type": "address"
        },
        {
          "indexed": true,
          "internalType": "address",
          "name": "spender",
          "type": "address"
        },
        {
          "indexed": false,
          "internalType": "uint256",
          "name": "value",
          "type": "uint256"
        }
      ],
      "name": "Approval",
      "type": "event"
    },
    {
      "anonymous": false,
      "inputs": [
        {
          "indexed": true,
          "internalType": "address",
          "name": "to",
          "type": "address"
        },
        {
          "indexed": false,
          "internalType": "string",
          "name": "message",
          "type": "string"
        }
      ],
      "name": "CertificateIssued",
      "type": "event"
    },
    {
      "anonymous": false,
      "inputs": [
        {
          "indexed": true,
          "internalType": "uint256",
          "name": "projectId",
          "type": "uint256"
        },
        {
          "indexed": false,
          "internalType": "address",
          "name": "donor",
          "type": "address"
        },
        {
          "indexed": false,
          "internalType": "uint256",
          "name": "amount",
          "type": "uint256"
        }
      ],
      "name": "DonationReceived",
      "type": "event"
    },
    {
      "anonymous": false,
      "inputs": [
        {
          "indexed": true,
          "internalType": "address",
          "name": "previousOwner",
          "type": "address"
        },
        {
          "indexed": true,
          "internalType": "address",
          "name": "newOwner",
          "type": "address"
        }
      ],
      "name": "OwnershipTransferred",
      "type": "event"
    },
    {
      "anonymous": false,
      "inputs": [
        {
          "indexed": true,
          "internalType": "uint256",
          "name": "projectId",
          "type": "uint256"
        },
        {
          "indexed": false,
          "internalType": "string",
          "name": "name",
          "type": "string"
        },
        {
          "indexed": false,
          "internalType": "uint256",
          "name": "tokenRequired",
          "type": "uint256"
        }
      ],
      "name": "ProjectCreated",
      "type": "event"
    },
    {
      "anonymous": false,
      "inputs": [
        {
          "indexed": true,
          "internalType": "uint256",
          "name": "projectId",
          "type": "uint256"
        }
      ],
      "name": "ProjectFunded",
      "type": "event"
    },
    {
      "anonymous": false,
      "inputs": [
        {
          "indexed": true,
          "internalType": "address",
          "name": "from",
          "type": "address"
        },
        {
          "indexed": false,
          "internalType": "uint256",
          "name": "amount",
          "type": "uint256"
        }
      ],
      "name": "TokensBurned",
      "type": "event"
    },
    {
      "anonymous": false,
      "inputs": [
        {
          "indexed": true,
          "internalType": "address",
          "name": "to",
          "type": "address"
        },
        {
          "indexed": false,
          "internalType": "uint256",
          "name": "amount",
          "type": "uint256"
        }
      ],
      "name": "TokensMinted",
      "type": "event"
    },
    {
      "anonymous": false,
      "inputs": [
        {
          "indexed": true,
          "internalType": "address",
          "name": "from",
          "type": "address"
        },
        {
          "indexed": true,
          "internalType": "address",
          "name": "to",
          "type": "address"
        },
        {
          "indexed": false,
          "internalType": "uint256",
          "name": "value",
          "type": "uint256"
        }
      ],
      "name": "Transfer",
      "type": "event"
    },
    {
      "inputs": [
        {
          "internalType": "address",
          "name": "owner",
          "type": "address"
        },
        {
          "internalType": "address",
          "name": "spender",
          "type": "address"
        }
      ],
      "name": "allowance",
      "outputs": [
        {
          "internalType": "uint256",
          "name": "",
          "type": "uint256"
        }
      ],
      "stateMutability": "view",
      "type": "function"
    },
    {
      "inputs": [
        {
          "internalType": "address",
          "name": "spender",
          "type": "address"
        },
        {
          "internalType": "uint256",
          "name": "value",
          "type": "uint256"
        }
      ],
      "name": "approve",
      "outputs": [
        {
          "internalType": "bool",
          "name": "",
          "type": "bool"
        }
      ],
      "stateMutability": "nonpayable",
      "type": "function"
    },
    {
      "inputs": [
        {
          "internalType": "address",
          "name": "account",
          "type": "address"
        }
      ],
      "name": "balanceOf",
      "outputs": [
        {
          "internalType": "uint256",
          "name": "",
          "type": "uint256"
        }
      ],
      "stateMutability": "view",
      "type": "function"
    },
    {
      "inputs": [
        {
          "internalType": "address",
          "name": "from",
          "type": "address"
        },
        {
          "internalType": "uint256",
          "name": "amount",
          "type": "uint256"
        }
      ],
      "name": "burnTokens",
      "outputs": [],
      "stateMutability": "nonpayable",
      "type": "function"
    },
    {
      "inputs": [
        {
          "internalType": "address",
          "name": "",
          "type": "address"
        },
        {
          "internalType": "uint256",
          "name": "",
          "type": "uint256"
        }
      ],
      "name": "certificates",
      "outputs": [
        {
          "internalType": "string",
          "name": "message",
          "type": "string"
        },
        {
          "internalType": "uint256",
          "name": "timestamp",
          "type": "uint256"
        },
        {
          "internalType": "address",
          "name": "issuedTo",
          "type": "address"
        }
      ],
      "stateMutability": "view",
      "type": "function"
    },
    {
      "inputs": [
        {
          "internalType": "string",
          "name": "name",
          "type": "string"
        },
        {
          "internalType": "string",
          "name": "website",
          "type": "string"
        },
        {
          "internalType": "string",
          "name": "description",
          "type": "string"
        },
        {
          "internalType": "uint256",
          "name": "tokenRequired",
          "type": "uint256"
        }
      ],
      "name": "createProject",
      "outputs": [],
      "stateMutability": "nonpayable",
      "type": "function"
    },
    {
      "inputs": [],
      "name": "decimals",
      "outputs": [
        {
          "internalType": "uint8",
          "name": "",
          "type": "uint8"
        }
      ],
      "stateMutability": "view",
      "type": "function"
    },
    {
      "inputs": [
        {
          "internalType": "uint256",
          "name": "projectId",
          "type": "uint256"
        },
        {
          "internalType": "uint256",
          "name": "amount",
          "type": "uint256"
        }
      ],
      "name": "donateToProject",
      "outputs": [],
      "stateMutability": "nonpayable",
      "type": "function"
    },
    {
      "inputs": [],
      "name": "getActiveProjects",
      "outputs": [
        {
          "components": [
            {
              "internalType": "string",
              "name": "name",
              "type": "string"
            },
            {
              "internalType": "string",
              "name": "website",
              "type": "string"
            },
            {
              "internalType": "string",
              "name": "description",
              "type": "string"
            },
            {
              "internalType": "uint256",
              "name": "tokenRequired",
              "type": "uint256"
            },
            {
              "internalType": "uint256",
              "name": "tokenReceived",
              "type": "uint256"
            },
            {
              "internalType": "bool",
              "name": "isActive",
              "type": "bool"
            },
            {
              "internalType": "address",
              "name": "creator",
              "type": "address"
            }
          ],
          "internalType": "struct ProjectDonation.Project[]",
          "name": "",
          "type": "tuple[]"
        }
      ],
      "stateMutability": "view",
      "type": "function"
    },
    {
      "inputs": [
        {
          "internalType": "address",
          "name": "user",
          "type": "address"
        }
      ],
      "name": "getCertificates",
      "outputs": [
        {
          "components": [
            {
              "internalType": "string",
              "name": "message",
              "type": "string"
            },
            {
              "internalType": "uint256",
              "name": "timestamp",
              "type": "uint256"
            },
            {
              "internalType": "address",
              "name": "issuedTo",
              "type": "address"
            }
          ],
          "internalType": "struct CarbonToken.Certificate[]",
          "name": "",
          "type": "tuple[]"
        }
      ],
      "stateMutability": "view",
      "type": "function"
    },
    {
      "inputs": [
        {
          "internalType": "uint256",
          "name": "projectId",
          "type": "uint256"
        }
      ],
      "name": "getProject",
      "outputs": [
        {
          "components": [
            {
              "internalType": "string",
              "name": "name",
              "type": "string"
            },
            {
              "internalType": "string",
              "name": "website",
              "type": "string"
            },
            {
              "internalType": "string",
              "name": "description",
              "type": "string"
            },
            {
              "internalType": "uint256",
              "name": "tokenRequired",
              "type": "uint256"
            },
            {
              "internalType": "uint256",
              "name": "tokenReceived",
              "type": "uint256"
            },
            {
              "internalType": "bool",
              "name": "isActive",
              "type": "bool"
            },
            {
              "internalType": "address",
              "name": "creator",
              "type": "address"
            }
          ],
          "internalType": "struct ProjectDonation.Project",
          "name": "",
          "type": "tuple"
        }
      ],
      "stateMutability": "view",
      "type": "function"
    },
    {
      "inputs": [
        {
          "internalType": "address",
          "name": "to",
          "type": "address"
        },
        {
          "internalType": "uint256",
          "name": "amount",
          "type": "uint256"
        }
      ],
      "name": "mintTokens",
      "outputs": [],
      "stateMutability": "nonpayable",
      "type": "function"
    },
    {
      "inputs": [],
      "name": "name",
      "outputs": [
        {
          "internalType": "string",
          "name": "",
          "type": "string"
        }
      ],
      "stateMutability": "view",
      "type": "function"
    },
    {
      "inputs": [],
      "name": "owner",
      "outputs": [
        {
          "internalType": "address",
          "name": "",
          "type": "address"
        }
      ],
      "stateMutability": "view",
      "type": "function"
    },
    {
      "inputs": [
        {
          "internalType": "uint256",
          "name": "",
          "type": "uint256"
        }
      ],
      "name": "projects",
      "outputs": [
        {
          "internalType": "string",
          "name": "name",
          "type": "string"
        },
        {
          "internalType": "string",
          "name": "website",
          "type": "string"
        },
        {
          "internalType": "string",
          "name": "description",
          "type": "string"
        },
        {
          "internalType": "uint256",
          "name": "tokenRequired",
          "type": "uint256"
        },
        {
          "internalType": "uint256",
          "name": "tokenReceived",
          "type": "uint256"
        },
        {
          "internalType": "bool",
          "name": "isActive",
          "type": "bool"
        },
        {
          "internalType": "address",
          "name": "creator",
          "type": "address"
        }
      ],
      "stateMutability": "view",
      "type": "function"
    },
    {
      "inputs": [],
      "name": "renounceOwnership",
      "outputs": [],
      "stateMutability": "nonpayable",
      "type": "function"
    },
    {
      "inputs": [],
      "name": "symbol",
      "outputs": [
        {
          "internalType": "string",
          "name": "",
          "type": "string"
        }
      ],
      "stateMutability": "view",
      "type": "function"
    },
    {
      "inputs": [],
      "name": "totalSupply",
      "outputs": [
        {
          "internalType": "uint256",
          "name": "",
          "type": "uint256"
        }
      ],
      "stateMutability": "view",
      "type": "function"
    },
    {
      "inputs": [
        {
          "internalType": "address",
          "name": "to",
          "type": "address"
        },
        {
          "internalType": "uint256",
          "name": "value",
          "type": "uint256"
        }
      ],
      "name": "transfer",
      "outputs": [
        {
          "internalType": "bool",
          "name": "",
          "type": "bool"
        }
      ],
      "stateMutability": "nonpayable",
      "type": "function"
    },
    {
      "inputs": [
        {
          "internalType": "address",
          "name": "from",
          "type": "address"
        },
        {
          "internalType": "address",
          "name": "to",
          "type": "address"
        },
        {
          "internalType": "uint256",
          "name": "value",
          "type": "uint256"
        }
      ],
      "name": "transferFrom",
      "outputs": [
        {
          "internalType": "bool",
          "name": "",
          "type": "bool"
        }
      ],
      "stateMutability": "nonpayable",
      "type": "function"
    },
    {
      "inputs": [
        {
          "internalType": "address",
          "name": "newOwner",
          "type": "address"
        }
      ],
      "name": "transferOwnership",
      "outputs": [],
      "stateMutability": "nonpayable",
      "type": "function"
    }
  ],
  "bytecode": "0x60806040523480156200001157600080fd5b50336040518060400160405280600b81526020017f436172626f6e546f6b656e0000000000000000000000000000000000000000008152506040518060400160405280600481526020017f4341524200000000000000000000000000000000000000000000000000000000815250816003908162000090919062000472565b508060049081620000a2919062000472565b505050600073ffffffffffffffffffffffffffffffffffffffff168173ffffffffffffffffffffffffffffffffffffffff16036200011a5760006040517f1e4fbdf70000000000000000000000000000000000000000000000000000000081526004016200011191906200059e565b60405180910390fd5b6200012b816200013260201b60201c565b50620005bb565b6000600560009054906101000a900473ffffffffffffffffffffffffffffffffffffffff16905081600560006101000a81548173ffffffffffffffffffffffffffffffffffffffff021916908373ffffffffffffffffffffffffffffffffffffffff1602179055508173ffffffffffffffffffffffffffffffffffffffff168173ffffffffffffffffffffffffffffffffffffffff167f8be0079c531659141344cd1fd0a4f28419497f9722a3daafe3b4186f6b6457e060405160405180910390a35050565b600081519050919050565b7f4e487b7100000000000000000000000000000000000000000000000000000000600052604160045260246000fd5b7f4e487b7100000000000000000000000000000000000000000000000000000000600052602260045260246000fd5b600060028204905060018216806200027a57607f821691505b60208210810362000290576200028f62000232565b5b50919050565b60008190508160005260206000209050919050565b60006020601f8301049050919050565b600082821b905092915050565b600060088302620002fa7fffffffffffffffffffffffffffffffffffffffffffffffffffffffffffffffff82620002bb565b620003068683620002bb565b95508019841693508086168417925050509392505050565b6000819050919050565b6000819050919050565b6000620003536200034d62000347846200031e565b62000328565b6200031e565b9050919050565b6000819050919050565b6200036f8362000332565b620003876200037e826200035a565b848454620002c8565b825550505050565b600090565b6200039e6200038f565b620003ab81848462000364565b505050565b5b81811015620003d357620003c760008262000394565b600181019050620003b1565b5050565b601f8211156200042257620003ec8162000296565b620003f784620002ab565b8101602085101562000407578190505b6200041f6200041685620002ab565b830182620003b0565b50505b505050565b600082821c905092915050565b6000620004476000198460080262000427565b1980831691505092915050565b600062000462838362000434565b9150826002028217905092915050565b6200047d82620001f8565b67ffffffffffffffff81111562000499576200049862000203565b5b620004a5825462000261565b620004b2828285620003d7565b600060209050601f831160018114620004ea5760008415620004d5578287015190505b620004e1858262000454565b86555062000551565b601f198416620004fa8662000296565b60005b828110156200052457848901518255600182019150602085019450602081019050620004fd565b8683101562000544578489015162000540601f89168262000434565b8355505b6001600288020188555050505b505050505050565b600073ffffffffffffffffffffffffffffffffffffffff82169050919050565b6000620005868262000559565b9050919050565b620005988162000579565b82525050565b6000602082019050620005b560008301846200058d565b92915050565b61335880620005cb6000396000f3fe608060405234801561001057600080fd5b50600436106101375760003560e01c806370a08231116100b8578063a9059cbb1161007c578063a9059cbb14610346578063dd62ed3e14610376578063f0dda65c146103a6578063f0f3f2c8146103c2578063f1c49c62146103f2578063f2fde38b1461042257610137565b806370a08231146102b4578063715018a6146102e45780638da5cb5b146102ee57806395d89b411461030c578063a5d9a5841461032a57610137565b80631ca73896116100ff5780631ca73896146101fa57806323b872dd1461021657806329cfce4114610246578063313ce5671461026457806346f3141c1461028257610137565b806306fdde031461013c578063095ea7b31461015a5780630d1118ce1461018a578063107046bd146101a657806318160ddd146101dc575b600080fd5b61014461043e565b60405161015191906121af565b60405180910390f35b610174600480360381019061016f9190612279565b6104d0565b60405161018191906122d4565b60405180910390f35b6101a4600480360381019061019f9190612279565b6104f3565b005b6101c060048036038101906101bb91906122ef565b610561565b6040516101d3979695949392919061233a565b60405180910390f35b6101e4610778565b6040516101f191906123be565b60405180910390f35b610214600480360381019061020f919061250e565b610782565b005b610230600480360381019061022b91906125c9565b61094d565b60405161023d91906122d4565b60405180910390f35b61024e61097c565b60405161025b91906127ff565b60405180910390f35b61026c610d3d565b604051610279919061283d565b60405180910390f35b61029c60048036038101906102979190612279565b610d46565b6040516102ab93929190612858565b60405180910390f35b6102ce60048036038101906102c99190612896565b610e35565b6040516102db91906123be565b60405180910390f35b6102ec610e7d565b005b6102f6610e91565b60405161030391906128c3565b60405180910390f35b610314610ebb565b60405161032191906121af565b60405180910390f35b610344600480360381019061033f91906128de565b610f4d565b005b610360600480360381019061035b9190612279565b61117a565b60405161036d91906122d4565b60405180910390f35b610390600480360381019061038b919061291e565b61119d565b60405161039d91906123be565b60405180910390f35b6103c060048036038101906103bb9190612279565b611224565b005b6103dc60048036038101906103d791906122ef565b611288565b6040516103e99190612a08565b60405180910390f35b61040c60048036038101906104079190612896565b611546565b6040516104199190612b3c565b60405180910390f35b61043c60048036038101906104379190612896565b6116d6565b005b60606003805461044d90612b8d565b80601f016020809104026020016040519081016040528092919081815260200182805461047990612b8d565b80156104c65780601f1061049b576101008083540402835291602001916104c6565b820191906000526020600020905b8154815290600101906020018083116104a957829003601f168201915b5050505050905090565b6000806104db61175c565b90506104e8818585611764565b600191505092915050565b6104fb611776565b61050582826117fd565b8173ffffffffffffffffffffffffffffffffffffffff167ffd38818f5291bf0bb3a2a48aadc06ba8757865d1dabd804585338aab3009dcb68260405161054b91906123be565b60405180910390a261055d828261187f565b5050565b6007818154811061057157600080fd5b906000526020600020906006020160009150905080600001805461059490612b8d565b80601f01602080910402602001604051908101604052809291908181526020018280546105c090612b8d565b801561060d5780601f106105e25761010080835404028352916020019161060d565b820191906000526020600020905b8154815290600101906020018083116105f057829003601f168201915b50505050509080600101805461062290612b8d565b80601f016020809104026020016040519081016040528092919081815260200182805461064e90612b8d565b801561069b5780601f106106705761010080835404028352916020019161069b565b820191906000526020600020905b81548152906001019060200180831161067e57829003601f168201915b5050505050908060020180546106b090612b8d565b80601f01602080910402602001604051908101604052809291908181526020018280546106dc90612b8d565b80156107295780601f106106fe57610100808354040283529160200191610729565b820191906000526020600020905b81548152906001019060200180831161070c57829003601f168201915b5050505050908060030154908060040154908060050160009054906101000a900460ff16908060050160019054906101000a900473ffffffffffffffffffffffffffffffffffffffff16905087565b6000600254905090565b600081116107c5576040517f08c379a00000000000000000000000000000000000000000000000000000000081526004016107bc90612c30565b60405180910390fd5b60076040518060e00160405280868152602001858152602001848152602001838152602001600081526020016001151581526020013373ffffffffffffffffffffffffffffffffffffffff16815250908060018154018082558091505060019003906000526020600020906006020160009091909190915060008201518160000190816108529190612dfc565b5060208201518160010190816108689190612dfc565b50604082015181600201908161087e9190612dfc565b50606082015181600301556080820151816004015560a08201518160050160006101000a81548160ff02191690831515021790555060c08201518160050160016101000a81548173ffffffffffffffffffffffffffffffffffffffff021916908373ffffffffffffffffffffffffffffffffffffffff1602179055505050600160078054905061090e9190612efd565b7f6245d01eb0db8df9242165c3ee1e2324367f93303d7b8f6a86e38a8767e643ae858360405161093f929190612f31565b60405180910390a250505050565b60008061095861175c565b90506109658582856119fe565b610970858585611a92565b60019150509392505050565b60606000805b6007805490508110156109e957600781815481106109a3576109a2612f61565b5b906000526020600020906006020160050160009054906101000a900460ff16156109d65781806109d290612f90565b9250505b80806109e190612f90565b915050610982565b5060008167ffffffffffffffff811115610a0657610a056123e3565b5b604051908082528060200260200182016040528015610a3f57816020015b610a2c6120ca565b815260200190600190039081610a245790505b5090506000805b600780549050811015610d335760078181548110610a6757610a66612f61565b5b906000526020600020906006020160050160009054906101000a900460ff1615610d205760078181548110610a9f57610a9e612f61565b5b90600052602060002090600602016040518060e0016040529081600082018054610ac890612b8d565b80601f0160208091040260200160405190810160405280929190818152602001828054610af490612b8d565b8015610b415780601f10610b1657610100808354040283529160200191610b41565b820191906000526020600020905b815481529060010190602001808311610b2457829003601f168201915b50505050508152602001600182018054610b5a90612b8d565b80601f0160208091040260200160405190810160405280929190818152602001828054610b8690612b8d565b8015610bd35780601f10610ba857610100808354040283529160200191610bd3565b820191906000526020600020905b815481529060010190602001808311610bb657829003601f168201915b50505050508152602001600282018054610bec90612b8d565b80601f0160208091040260200160405190810160405280929190818152602001828054610c1890612b8d565b8015610c655780601f10610c3a57610100808354040283529160200191610c65565b820191906000526020600020905b815481529060010190602001808311610c4857829003601f168201915b5050505050815260200160038201548152602001600482015481526020016005820160009054906101000a900460ff161515151581526020016005820160019054906101000a900473ffffffffffffffffffffffffffffffffffffffff1673ffffffffffffffffffffffffffffffffffffffff1673ffffffffffffffffffffffffffffffffffffffff1681525050838381518110610d0657610d05612f61565b5b60200260200101819052508180610d1c90612f90565b9250505b8080610d2b90612f90565b915050610a46565b5081935050505090565b60006012905090565b60066020528160005260406000208181548110610d6257600080fd5b906000526020600020906003020160009150915050806000018054610d8690612b8d565b80601f0160208091040260200160405190810160405280929190818152602001828054610db290612b8d565b8015610dff5780601f10610dd457610100808354040283529160200191610dff565b820191906000526020600020905b815481529060010190602001808311610de257829003601f168201915b5050505050908060010154908060020160009054906101000a900473ffffffffffffffffffffffffffffffffffffffff16905083565b60008060008373ffffffffffffffffffffffffffffffffffffffff1673ffffffffffffffffffffffffffffffffffffffff168152602001908152602001600020549050919050565b610e85611776565b610e8f6000611b86565b565b6000600560009054906101000a900473ffffffffffffffffffffffffffffffffffffffff16905090565b606060048054610eca90612b8d565b80601f0160208091040260200160405190810160405280929190818152602001828054610ef690612b8d565b8015610f435780601f10610f1857610100808354040283529160200191610f43565b820191906000526020600020905b815481529060010190602001808311610f2657829003601f168201915b5050505050905090565b816007805490508110610f95576040517f08c379a0000000000000000000000000000000000000000000000000000000008152600401610f8c90613024565b60405180910390fd5b60078181548110610fa957610fa8612f61565b5b906000526020600020906006020160050160009054906101000a900460ff16611007576040517f08c379a0000000000000000000000000000000000000000000000000000000008152600401610ffe90613090565b60405180910390fd5b60006007848154811061101d5761101c612f61565b5b9060005260206000209060060201905060008311611070576040517f08c379a000000000000000000000000000000000000000000000000000000000815260040161106790613122565b60405180910390fd5b600080826004015483600301546110879190612efd565b9050808511156110a357808561109d9190612efd565b91508094505b6110ae333087611a92565b848360040160008282546110c29190613142565b92505081905550857f0b5b4c52969ff7329ecf7ee536409fda87812b15a8622bc6e8cdeab3aee14a2633876040516110fb929190613176565b60405180910390a2826003015483600401541061115d5760008360050160006101000a81548160ff021916908315150217905550857f2301e0a2ad8f6e28a7fbb09e96f5c14e588fac346ed5ce607e1a018bc768864660405160405180910390a25b600082111561117257611171303384611a92565b5b505050505050565b60008061118561175c565b9050611192818585611a92565b600191505092915050565b6000600160008473ffffffffffffffffffffffffffffffffffffffff1673ffffffffffffffffffffffffffffffffffffffff16815260200190815260200160002060008373ffffffffffffffffffffffffffffffffffffffff1673ffffffffffffffffffffffffffffffffffffffff16815260200190815260200160002054905092915050565b61122c611776565b6112368282611c4c565b8173ffffffffffffffffffffffffffffffffffffffff167f3f2c9d57c068687834f0de942a9babb9e5acab57d516d3480a3c16ee165a42738260405161127c91906123be565b60405180910390a25050565b6112906120ca565b60078054905082106112d7576040517f08c379a00000000000000000000000000000000000000000000000000000000081526004016112ce90613024565b60405180910390fd5b600782815481106112eb576112ea612f61565b5b90600052602060002090600602016040518060e001604052908160008201805461131490612b8d565b80601f016020809104026020016040519081016040528092919081815260200182805461134090612b8d565b801561138d5780601f106113625761010080835404028352916020019161138d565b820191906000526020600020905b81548152906001019060200180831161137057829003601f168201915b505050505081526020016001820180546113a690612b8d565b80601f01602080910402602001604051908101604052809291908181526020018280546113d290612b8d565b801561141f5780601f106113f45761010080835404028352916020019161141f565b820191906000526020600020905b81548152906001019060200180831161140257829003601f168201915b5050505050815260200160028201805461143890612b8d565b80601f016020809104026020016040519081016040528092919081815260200182805461146490612b8d565b80156114b15780601f10611486576101008083540402835291602001916114b1565b820191906000526020600020905b81548152906001019060200180831161149457829003601f168201915b5050505050815260200160038201548152602001600482015481526020016005820160009054906101000a900460ff161515151581526020016005820160019054906101000a900473ffffffffffffffffffffffffffffffffffffffff1673ffffffffffffffffffffffffffffffffffffffff1673ffffffffffffffffffffffffffffffffffffffff16815250509050919050565b6060600660008373ffffffffffffffffffffffffffffffffffffffff1673ffffffffffffffffffffffffffffffffffffffff168152602001908152602001600020805480602002602001604051908101604052809291908181526020016000905b828210156116cb57838290600052602060002090600302016040518060600160405290816000820180546115da90612b8d565b80601f016020809104026020016040519081016040528092919081815260200182805461160690612b8d565b80156116535780601f1061162857610100808354040283529160200191611653565b820191906000526020600020905b81548152906001019060200180831161163657829003601f168201915b50505050508152602001600182015481526020016002820160009054906101000a900473ffffffffffffffffffffffffffffffffffffffff1673ffffffffffffffffffffffffffffffffffffffff1673ffffffffffffffffffffffffffffffffffffffff1681525050815260200190600101906115a7565b505050509050919050565b6116de611776565b600073ffffffffffffffffffffffffffffffffffffffff168173ffffffffffffffffffffffffffffffffffffffff16036117505760006040517f1e4fbdf700000000000000000000000000000000000000000000000000000000815260040161174791906128c3565b60405180910390fd5b61175981611b86565b50565b600033905090565b6117718383836001611cce565b505050565b61177e61175c565b73ffffffffffffffffffffffffffffffffffffffff1661179c610e91565b73ffffffffffffffffffffffffffffffffffffffff16146117fb576117bf61175c565b6040517f118cdaa70000000000000000000000000000000000000000000000000000000081526004016117f291906128c3565b60405180910390fd5b565b600073ffffffffffffffffffffffffffffffffffffffff168273ffffffffffffffffffffffffffffffffffffffff160361186f5760006040517f96c6fd1e00000000000000000000000000000000000000000000000000000000815260040161186691906128c3565b60405180910390fd5b61187b82600083611ea5565b5050565b60008160405160200161189291906132af565b6040516020818303038152906040529050600060405180606001604052808381526020014281526020018573ffffffffffffffffffffffffffffffffffffffff168152509050600660008573ffffffffffffffffffffffffffffffffffffffff1673ffffffffffffffffffffffffffffffffffffffff16815260200190815260200160002081908060018154018082558091505060019003906000526020600020906003020160009091909190915060008201518160000190816119569190612dfc565b506020820151816001015560408201518160020160006101000a81548173ffffffffffffffffffffffffffffffffffffffff021916908373ffffffffffffffffffffffffffffffffffffffff16021790555050508373ffffffffffffffffffffffffffffffffffffffff167f4514a45e6f56567008e790fe2158e66d34e8b8254c060ad061d5702748791479836040516119f091906121af565b60405180910390a250505050565b6000611a0a848461119d565b90507fffffffffffffffffffffffffffffffffffffffffffffffffffffffffffffffff8114611a8c5781811015611a7c578281836040517ffb8f41b2000000000000000000000000000000000000000000000000000000008152600401611a73939291906132eb565b60405180910390fd5b611a8b84848484036000611cce565b5b50505050565b600073ffffffffffffffffffffffffffffffffffffffff168373ffffffffffffffffffffffffffffffffffffffff1603611b045760006040517f96c6fd1e000000000000000000000000000000000000000000000000000000008152600401611afb91906128c3565b60405180910390fd5b600073ffffffffffffffffffffffffffffffffffffffff168273ffffffffffffffffffffffffffffffffffffffff1603611b765760006040517fec442f05000000000000000000000000000000000000000000000000000000008152600401611b6d91906128c3565b60405180910390fd5b611b81838383611ea5565b505050565b6000600560009054906101000a900473ffffffffffffffffffffffffffffffffffffffff16905081600560006101000a81548173ffffffffffffffffffffffffffffffffffffffff021916908373ffffffffffffffffffffffffffffffffffffffff1602179055508173ffffffffffffffffffffffffffffffffffffffff168173ffffffffffffffffffffffffffffffffffffffff167f8be0079c531659141344cd1fd0a4f28419497f9722a3daafe3b4186f6b6457e060405160405180910390a35050565b600073ffffffffffffffffffffffffffffffffffffffff168273ffffffffffffffffffffffffffffffffffffffff1603611cbe5760006040517fec442f05000000000000000000000000000000000000000000000000000000008152600401611cb591906128c3565b60405180910390fd5b611cca60008383611ea5565b5050565b600073ffffffffffffffffffffffffffffffffffffffff168473ffffffffffffffffffffffffffffffffffffffff1603611d405760006040517fe602df05000000000000000000000000000000000000000000000000000000008152600401611d3791906128c3565b60405180910390fd5b600073ffffffffffffffffffffffffffffffffffffffff168373ffffffffffffffffffffffffffffffffffffffff1603611db25760006040517f94280d62000000000000000000000000000000000000000000000000000000008152600401611da991906128c3565b60405180910390fd5b81600160008673ffffffffffffffffffffffffffffffffffffffff1673ffffffffffffffffffffffffffffffffffffffff16815260200190815260200160002060008573ffffffffffffffffffffffffffffffffffffffff1673ffffffffffffffffffffffffffffffffffffffff168152602001908152602001600020819055508015611e9f578273ffffffffffffffffffffffffffffffffffffffff168473ffffffffffffffffffffffffffffffffffffffff167f8c5be1e5ebec7d5bd14f71427d1e84f3dd0314c0f7b2291e5b200ac8c7c3b92584604051611e9691906123be565b60405180910390a35b50505050565b600073ffffffffffffffffffffffffffffffffffffffff168373ffffffffffffffffffffffffffffffffffffffff1603611ef7578060026000828254611eeb9190613142565b92505081905550611fca565b60008060008573ffffffffffffffffffffffffffffffffffffffff1673ffffffffffffffffffffffffffffffffffffffff16815260200190815260200160002054905081811015611f83578381836040517fe450d38c000000000000000000000000000000000000000000000000000000008152600401611f7a939291906132eb565b60405180910390fd5b8181036000808673ffffffffffffffffffffffffffffffffffffffff1673ffffffffffffffffffffffffffffffffffffffff16815260200190815260200160002081905550505b600073ffffffffffffffffffffffffffffffffffffffff168273ffffffffffffffffffffffffffffffffffffffff16036120135780600260008282540392505081905550612060565b806000808473ffffffffffffffffffffffffffffffffffffffff1673ffffffffffffffffffffffffffffffffffffffff168152602001908152602001600020600082825401925050819055505b8173ffffffffffffffffffffffffffffffffffffffff168373ffffffffffffffffffffffffffffffffffffffff167fddf252ad1be2c89b69c2b068fc378daa952ba7f163c4a11628f55a4df523b3ef836040516120bd91906123be565b60405180910390a3505050565b6040518060e001604052806060815260200160608152602001606081526020016000815260200160008152602001600015158152602001600073ffffffffffffffffffffffffffffffffffffffff1681525090565b600081519050919050565b600082825260208201905092915050565b60005b8381101561215957808201518184015260208101905061213e565b60008484015250505050565b6000601f19601f8301169050919050565b60006121818261211f565b61218b818561212a565b935061219b81856020860161213b565b6121a481612165565b840191505092915050565b600060208201905081810360008301526121c98184612176565b905092915050565b6000604051905090565b600080fd5b600080fd5b600073ffffffffffffffffffffffffffffffffffffffff82169050919050565b6000612210826121e5565b9050919050565b61222081612205565b811461222b57600080fd5b50565b60008135905061223d81612217565b92915050565b6000819050919050565b61225681612243565b811461226157600080fd5b50565b6000813590506122738161224d565b92915050565b600080604083850312156122905761228f6121db565b5b600061229e8582860161222e565b92505060206122af85828601612264565b9150509250929050565b60008115159050919050565b6122ce816122b9565b82525050565b60006020820190506122e960008301846122c5565b92915050565b600060208284031215612305576123046121db565b5b600061231384828501612264565b91505092915050565b61232581612243565b82525050565b61233481612205565b82525050565b600060e0820190508181036000830152612354818a612176565b905081810360208301526123688189612176565b9050818103604083015261237c8188612176565b905061238b606083018761231c565b612398608083018661231c565b6123a560a08301856122c5565b6123b260c083018461232b565b98975050505050505050565b60006020820190506123d3600083018461231c565b92915050565b600080fd5b600080fd5b7f4e487b7100000000000000000000000000000000000000000000000000000000600052604160045260246000fd5b61241b82612165565b810181811067ffffffffffffffff8211171561243a576124396123e3565b5b80604052505050565b600061244d6121d1565b90506124598282612412565b919050565b600067ffffffffffffffff821115612479576124786123e3565b5b61248282612165565b9050602081019050919050565b82818337600083830152505050565b60006124b16124ac8461245e565b612443565b9050828152602081018484840111156124cd576124cc6123de565b5b6124d884828561248f565b509392505050565b600082601f8301126124f5576124f46123d9565b5b813561250584826020860161249e565b91505092915050565b60008060008060808587031215612528576125276121db565b5b600085013567ffffffffffffffff811115612546576125456121e0565b5b612552878288016124e0565b945050602085013567ffffffffffffffff811115612573576125726121e0565b5b61257f878288016124e0565b935050604085013567ffffffffffffffff8111156125a05761259f6121e0565b5b6125ac878288016124e0565b92505060606125bd87828801612264565b91505092959194509250565b6000806000606084860312156125e2576125e16121db565b5b60006125f08682870161222e565b93505060206126018682870161222e565b925050604061261286828701612264565b9150509250925092565b600081519050919050565b600082825260208201905092915050565b6000819050602082019050919050565b600082825260208201905092915050565b60006126648261211f565b61266e8185612648565b935061267e81856020860161213b565b61268781612165565b840191505092915050565b61269b81612243565b82525050565b6126aa816122b9565b82525050565b6126b981612205565b82525050565b600060e08301600083015184820360008601526126dc8282612659565b915050602083015184820360208601526126f68282612659565b915050604083015184820360408601526127108282612659565b91505060608301516127256060860182612692565b5060808301516127386080860182612692565b5060a083015161274b60a08601826126a1565b5060c083015161275e60c08601826126b0565b508091505092915050565b600061277583836126bf565b905092915050565b6000602082019050919050565b60006127958261261c565b61279f8185612627565b9350836020820285016127b185612638565b8060005b858110156127ed57848403895281516127ce8582612769565b94506127d98361277d565b925060208a019950506001810190506127b5565b50829750879550505050505092915050565b60006020820190508181036000830152612819818461278a565b905092915050565b600060ff82169050919050565b61283781612821565b82525050565b6000602082019050612852600083018461282e565b92915050565b600060608201905081810360008301526128728186612176565b9050612881602083018561231c565b61288e604083018461232b565b949350505050565b6000602082840312156128ac576128ab6121db565b5b60006128ba8482850161222e565b91505092915050565b60006020820190506128d8600083018461232b565b92915050565b600080604083850312156128f5576128f46121db565b5b600061290385828601612264565b925050602061291485828601612264565b9150509250929050565b60008060408385031215612935576129346121db565b5b60006129438582860161222e565b92505060206129548582860161222e565b9150509250929050565b600060e083016000830151848203600086015261297b8282612659565b915050602083015184820360208601526129958282612659565b915050604083015184820360408601526129af8282612659565b91505060608301516129c46060860182612692565b5060808301516129d76080860182612692565b5060a08301516129ea60a08601826126a1565b5060c08301516129fd60c08601826126b0565b508091505092915050565b60006020820190508181036000830152612a22818461295e565b905092915050565b600081519050919050565b600082825260208201905092915050565b6000819050602082019050919050565b60006060830160008301518482036000860152612a738282612659565b9150506020830151612a886020860182612692565b506040830151612a9b60408601826126b0565b508091505092915050565b6000612ab28383612a56565b905092915050565b6000602082019050919050565b6000612ad282612a2a565b612adc8185612a35565b935083602082028501612aee85612a46565b8060005b85811015612b2a5784840389528151612b0b8582612aa6565b9450612b1683612aba565b925060208a01995050600181019050612af2565b50829750879550505050505092915050565b60006020820190508181036000830152612b568184612ac7565b905092915050565b7f4e487b7100000000000000000000000000000000000000000000000000000000600052602260045260246000fd5b60006002820490506001821680612ba557607f821691505b602082108103612bb857612bb7612b5e565b5b50919050565b7f546f6b656e20726571756972656d656e74206d7573742062652067726561746560008201527f72207468616e207a65726f2e0000000000000000000000000000000000000000602082015250565b6000612c1a602c8361212a565b9150612c2582612bbe565b604082019050919050565b60006020820190508181036000830152612c4981612c0d565b9050919050565b60008190508160005260206000209050919050565b60006020601f8301049050919050565b600082821b905092915050565b600060088302612cb27fffffffffffffffffffffffffffffffffffffffffffffffffffffffffffffffff82612c75565b612cbc8683612c75565b95508019841693508086168417925050509392505050565b6000819050919050565b6000612cf9612cf4612cef84612243565b612cd4565b612243565b9050919050565b6000819050919050565b612d1383612cde565b612d27612d1f82612d00565b848454612c82565b825550505050565b600090565b612d3c612d2f565b612d47818484612d0a565b505050565b5b81811015612d6b57612d60600082612d34565b600181019050612d4d565b5050565b601f821115612db057612d8181612c50565b612d8a84612c65565b81016020851015612d99578190505b612dad612da585612c65565b830182612d4c565b50505b505050565b600082821c905092915050565b6000612dd360001984600802612db5565b1980831691505092915050565b6000612dec8383612dc2565b9150826002028217905092915050565b612e058261211f565b67ffffffffffffffff811115612e1e57612e1d6123e3565b5b612e288254612b8d565b612e33828285612d6f565b600060209050601f831160018114612e665760008415612e54578287015190505b612e5e8582612de0565b865550612ec6565b601f198416612e7486612c50565b60005b82811015612e9c57848901518255600182019150602085019450602081019050612e77565b86831015612eb95784890151612eb5601f891682612dc2565b8355505b6001600288020188555050505b505050505050565b7f4e487b7100000000000000000000000000000000000000000000000000000000600052601160045260246000fd5b6000612f0882612243565b9150612f1383612243565b9250828203905081811115612f2b57612f2a612ece565b5b92915050565b60006040820190508181036000830152612f4b8185612176565b9050612f5a602083018461231c565b9392505050565b7f4e487b7100000000000000000000000000000000000000000000000000000000600052603260045260246000fd5b6000612f9b82612243565b91507fffffffffffffffffffffffffffffffffffffffffffffffffffffffffffffffff8203612fcd57612fcc612ece565b5b600182019050919050565b7f50726f6a65637420646f6573206e6f742065786973742e000000000000000000600082015250565b600061300e60178361212a565b915061301982612fd8565b602082019050919050565b6000602082019050818103600083015261303d81613001565b9050919050565b7f50726f6a656374206973206e6f74206163746976652e00000000000000000000600082015250565b600061307a60168361212a565b915061308582613044565b602082019050919050565b600060208201905081810360008301526130a98161306d565b9050919050565b7f446f6e6174696f6e206d7573742062652067726561746572207468616e207a6560008201527f726f2e0000000000000000000000000000000000000000000000000000000000602082015250565b600061310c60238361212a565b9150613117826130b0565b604082019050919050565b6000602082019050818103600083015261313b816130ff565b9050919050565b600061314d82612243565b915061315883612243565b92508282019050808211156131705761316f612ece565b5b92915050565b600060408201905061318b600083018561232b565b613198602083018461231c565b9392505050565b600081905092915050565b7f43657274696669636174653a2000000000000000000000000000000000000000600082015250565b60006131e0600d8361319f565b91506131eb826131aa565b600d82019050919050565b7f50726f6a65637420617070726f7665642e200000000000000000000000000000600082015250565b600061322c60128361319f565b9150613237826131f6565b601282019050919050565b6000819050919050565b61325d61325882612243565b613242565b82525050565b7f20746f6b656e73206275726e6564207375636365737366756c6c792e00000000600082015250565b6000613299601c8361319f565b91506132a482613263565b601c82019050919050565b60006132ba826131d3565b91506132c58261321f565b91506132d1828461324c565b6020820191506132e08261328c565b915081905092915050565b6000606082019050613300600083018661232b565b61330d602083018561231c565b61331a604083018461231c565b94935050505056fea2646970667358221220260db22b917abd994baef471e96ed22d8837b4f0adf4c7531ada8180b66d8d0064736f6c63430008140033",
  "linkReferences": {},
  "deployedLinkReferences": {}
}