{
  "_format": "hh-sol-artifact-1",
  "contractName": "WalletLogin",
  "sourceName": "contracts/WalletLogin.sol",
  "abi": [
    {
      "inputs": [],
      "stateMutability": "nonpayable",
      "type": "constructor"
    },
    {
      "anonymous": false,
      "inputs": [
        {
          "indexed": true,
          "internalType": "address",
          "name": "user",
          "type": "address"
        }
      ],
      "name": "LoginSuccessful",
      "type": "event"
    },
    {
      "anonymous": false,
      "inputs": [
        {
          "indexed": true,
          "internalType": "address",
          "name": "user",
          "type": "address"
        },
        {
          "indexed": false,
          "internalType": "string",
          "name": "username",
          "type": "string"
        }
      ],
      "name": "UserRegistered",
      "type": "event"
    },
    {
      "inputs": [],
      "name": "admin",
      "outputs": [
        {
          "internalType": "address",
          "name": "",
          "type": "address"
        }
      ],
      "stateMutability": "view",
      "type": "function"
    },
    {
      "inputs": [
        {
          "internalType": "address",
          "name": "user",
          "type": "address"
        }
      ],
      "name": "getUsername",
      "outputs": [
        {
          "internalType": "string",
          "name": "",
          "type": "string"
        }
      ],
      "stateMutability": "view",
      "type": "function"
    },
    {
      "inputs": [
        {
          "internalType": "address",
          "name": "user",
          "type": "address"
        }
      ],
      "name": "isUser",
      "outputs": [
        {
          "internalType": "bool",
          "name": "",
          "type": "bool"
        }
      ],
      "stateMutability": "view",
      "type": "function"
    },
    {
      "inputs": [],
      "name": "login",
      "outputs": [
        {
          "internalType": "string",
          "name": "",
          "type": "string"
        }
      ],
      "stateMutability": "view",
      "type": "function"
    },
    {
      "inputs": [
        {
          "internalType": "string",
          "name": "username",
          "type": "string"
        }
      ],
      "name": "register",
      "outputs": [],
      "stateMutability": "nonpayable",
      "type": "function"
    },
    {
      "inputs": [
        {
          "internalType": "address",
          "name": "",
          "type": "address"
        }
      ],
      "name": "usernames",
      "outputs": [
        {
          "internalType": "string",
          "name": "",
          "type": "string"
        }
      ],
      "stateMutability": "view",
      "type": "function"
    },
    {
      "inputs": [
        {
          "internalType": "address",
          "name": "",
          "type": "address"
        }
      ],
      "name": "users",
      "outputs": [
        {
          "internalType": "bool",
          "name": "",
          "type": "bool"
        }
      ],
      "stateMutability": "view",
      "type": "function"
    }
  ],
  "bytecode": "0x60806040523480156200001157600080fd5b50336000806101000a81548173ffffffffffffffffffffffffffffffffffffffff021916908373ffffffffffffffffffffffffffffffffffffffff16021790555060018060008060009054906101000a900473ffffffffffffffffffffffffffffffffffffffff1673ffffffffffffffffffffffffffffffffffffffff1673ffffffffffffffffffffffffffffffffffffffff16815260200190815260200160002060006101000a81548160ff0219169083151502179055506040518060400160405280600581526020017f41646d696e000000000000000000000000000000000000000000000000000000815250600260008060009054906101000a900473ffffffffffffffffffffffffffffffffffffffff1673ffffffffffffffffffffffffffffffffffffffff1673ffffffffffffffffffffffffffffffffffffffff16815260200190815260200160002090816200016e91906200045d565b5060008054906101000a900473ffffffffffffffffffffffffffffffffffffffff1673ffffffffffffffffffffffffffffffffffffffff167f48cac28ad4dc618e15f4c2dd5e97751182f166de97b25618318b2112aa951a2f604051620001d590620005a5565b60405180910390a2620005c7565b600081519050919050565b7f4e487b7100000000000000000000000000000000000000000000000000000000600052604160045260246000fd5b7f4e487b7100000000000000000000000000000000000000000000000000000000600052602260045260246000fd5b600060028204905060018216806200026557607f821691505b6020821081036200027b576200027a6200021d565b5b50919050565b60008190508160005260206000209050919050565b60006020601f8301049050919050565b600082821b905092915050565b600060088302620002e57fffffffffffffffffffffffffffffffffffffffffffffffffffffffffffffffff82620002a6565b620002f18683620002a6565b95508019841693508086168417925050509392505050565b6000819050919050565b6000819050919050565b60006200033e62000338620003328462000309565b62000313565b62000309565b9050919050565b6000819050919050565b6200035a836200031d565b62000372620003698262000345565b848454620002b3565b825550505050565b600090565b620003896200037a565b620003968184846200034f565b505050565b5b81811015620003be57620003b26000826200037f565b6001810190506200039c565b5050565b601f8211156200040d57620003d78162000281565b620003e28462000296565b81016020851015620003f2578190505b6200040a620004018562000296565b8301826200039b565b50505b505050565b600082821c905092915050565b6000620004326000198460080262000412565b1980831691505092915050565b60006200044d83836200041f565b9150826002028217905092915050565b6200046882620001e3565b67ffffffffffffffff811115620004845762000483620001ee565b5b6200049082546200024c565b6200049d828285620003c2565b600060209050601f831160018114620004d55760008415620004c0578287015190505b620004cc85826200043f565b8655506200053c565b601f198416620004e58662000281565b60005b828110156200050f57848901518255600182019150602085019450602081019050620004e8565b868310156200052f57848901516200052b601f8916826200041f565b8355505b6001600288020188555050505b505050505050565b600082825260208201905092915050565b7f41646d696e000000000000000000000000000000000000000000000000000000600082015250565b60006200058d60058362000544565b91506200059a8262000555565b602082019050919050565b60006020820190508181036000830152620005c0816200057e565b9050919050565b610ff880620005d76000396000f3fe608060405234801561001057600080fd5b506004361061007d5760003560e01c8063ce43c0321161005b578063ce43c03214610100578063ee91877c14610130578063f2c298be14610160578063f851a4401461017c5761007d565b80634209fff114610082578063a87430ba146100b2578063b34e97e8146100e2575b600080fd5b61009c600480360381019061009791906107eb565b61019a565b6040516100a99190610833565b60405180910390f35b6100cc60048036038101906100c791906107eb565b6101f0565b6040516100d99190610833565b60405180910390f35b6100ea610210565b6040516100f791906108de565b60405180910390f35b61011a600480360381019061011591906107eb565b610395565b60405161012791906108de565b60405180910390f35b61014a600480360381019061014591906107eb565b6104f2565b60405161015791906108de565b60405180910390f35b61017a60048036038101906101759190610965565b610592565b005b61018461075f565b60405161019191906109c1565b60405180910390f35b6000600160008373ffffffffffffffffffffffffffffffffffffffff1673ffffffffffffffffffffffffffffffffffffffff16815260200190815260200160002060009054906101000a900460ff169050919050565b60016020528060005260406000206000915054906101000a900460ff1681565b606060008054906101000a900473ffffffffffffffffffffffffffffffffffffffff1673ffffffffffffffffffffffffffffffffffffffff163373ffffffffffffffffffffffffffffffffffffffff16036102a2576040518060400160405280601281526020017f4c6f6767656420696e2061732041646d696e00000000000000000000000000008152509050610392565b600160003373ffffffffffffffffffffffffffffffffffffffff1673ffffffffffffffffffffffffffffffffffffffff16815260200190815260200160002060009054906101000a900460ff161561035957600260003373ffffffffffffffffffffffffffffffffffffffff1673ffffffffffffffffffffffffffffffffffffffff1681526020019081526020016000206040516020016103439190610b2b565b6040516020818303038152906040529050610392565b6040518060400160405280601681526020017f41646472657373206e6f7420726567697374657265640000000000000000000081525090505b90565b6060600160008373ffffffffffffffffffffffffffffffffffffffff1673ffffffffffffffffffffffffffffffffffffffff16815260200190815260200160002060009054906101000a900460ff16610423576040517f08c379a000000000000000000000000000000000000000000000000000000000815260040161041a90610bbf565b60405180910390fd5b600260008373ffffffffffffffffffffffffffffffffffffffff1673ffffffffffffffffffffffffffffffffffffffff168152602001908152602001600020805461046d90610a62565b80601f016020809104026020016040519081016040528092919081815260200182805461049990610a62565b80156104e65780601f106104bb576101008083540402835291602001916104e6565b820191906000526020600020905b8154815290600101906020018083116104c957829003601f168201915b50505050509050919050565b6002602052806000526040600020600091509050805461051190610a62565b80601f016020809104026020016040519081016040528092919081815260200182805461053d90610a62565b801561058a5780601f1061055f5761010080835404028352916020019161058a565b820191906000526020600020905b81548152906001019060200180831161056d57829003601f168201915b505050505081565b600160003373ffffffffffffffffffffffffffffffffffffffff1673ffffffffffffffffffffffffffffffffffffffff16815260200190815260200160002060009054906101000a900460ff161561061f576040517f08c379a000000000000000000000000000000000000000000000000000000000815260040161061690610c2b565b60405180910390fd5b60008282905011610665576040517f08c379a000000000000000000000000000000000000000000000000000000000815260040161065c90610c97565b60405180910390fd5b60018060003373ffffffffffffffffffffffffffffffffffffffff1673ffffffffffffffffffffffffffffffffffffffff16815260200190815260200160002060006101000a81548160ff0219169083151502179055508181600260003373ffffffffffffffffffffffffffffffffffffffff1673ffffffffffffffffffffffffffffffffffffffff168152602001908152602001600020918261070a929190610e92565b503373ffffffffffffffffffffffffffffffffffffffff167f48cac28ad4dc618e15f4c2dd5e97751182f166de97b25618318b2112aa951a2f8383604051610753929190610f9e565b60405180910390a25050565b60008054906101000a900473ffffffffffffffffffffffffffffffffffffffff1681565b600080fd5b600080fd5b600073ffffffffffffffffffffffffffffffffffffffff82169050919050565b60006107b88261078d565b9050919050565b6107c8816107ad565b81146107d357600080fd5b50565b6000813590506107e5816107bf565b92915050565b60006020828403121561080157610800610783565b5b600061080f848285016107d6565b91505092915050565b60008115159050919050565b61082d81610818565b82525050565b60006020820190506108486000830184610824565b92915050565b600081519050919050565b600082825260208201905092915050565b60005b8381101561088857808201518184015260208101905061086d565b60008484015250505050565b6000601f19601f8301169050919050565b60006108b08261084e565b6108ba8185610859565b93506108ca81856020860161086a565b6108d381610894565b840191505092915050565b600060208201905081810360008301526108f881846108a5565b905092915050565b600080fd5b600080fd5b600080fd5b60008083601f84011261092557610924610900565b5b8235905067ffffffffffffffff81111561094257610941610905565b5b60208301915083600182028301111561095e5761095d61090a565b5b9250929050565b6000806020838503121561097c5761097b610783565b5b600083013567ffffffffffffffff81111561099a57610999610788565b5b6109a68582860161090f565b92509250509250929050565b6109bb816107ad565b82525050565b60006020820190506109d660008301846109b2565b92915050565b600081905092915050565b7f4c6f6767656420696e20617320557365723a2000000000000000000000000000600082015250565b6000610a1d6013836109dc565b9150610a28826109e7565b601382019050919050565b7f4e487b7100000000000000000000000000000000000000000000000000000000600052602260045260246000fd5b60006002820490506001821680610a7a57607f821691505b602082108103610a8d57610a8c610a33565b5b50919050565b60008190508160005260206000209050919050565b60008154610ab581610a62565b610abf81866109dc565b94506001821660008114610ada5760018114610aef57610b22565b60ff1983168652811515820286019350610b22565b610af885610a93565b60005b83811015610b1a57815481890152600182019150602081019050610afb565b838801955050505b50505092915050565b6000610b3682610a10565b9150610b428284610aa8565b915081905092915050565b7f546869732061646472657373206973206e6f742061207265676973746572656460008201527f2075736572000000000000000000000000000000000000000000000000000000602082015250565b6000610ba9602583610859565b9150610bb482610b4d565b604082019050919050565b60006020820190508181036000830152610bd881610b9c565b9050919050565b7f596f752061726520616c72656164792072656769737465726564000000000000600082015250565b6000610c15601a83610859565b9150610c2082610bdf565b602082019050919050565b60006020820190508181036000830152610c4481610c08565b9050919050565b7f557365726e616d652063616e6e6f7420626520656d7074790000000000000000600082015250565b6000610c81601883610859565b9150610c8c82610c4b565b602082019050919050565b60006020820190508181036000830152610cb081610c74565b9050919050565b600082905092915050565b7f4e487b7100000000000000000000000000000000000000000000000000000000600052604160045260246000fd5b60006020601f8301049050919050565b600082821b905092915050565b600060088302610d3e7fffffffffffffffffffffffffffffffffffffffffffffffffffffffffffffffff82610d01565b610d488683610d01565b95508019841693508086168417925050509392505050565b6000819050919050565b6000819050919050565b6000610d8f610d8a610d8584610d60565b610d6a565b610d60565b9050919050565b6000819050919050565b610da983610d74565b610dbd610db582610d96565b848454610d0e565b825550505050565b600090565b610dd2610dc5565b610ddd818484610da0565b505050565b5b81811015610e0157610df6600082610dca565b600181019050610de3565b5050565b601f821115610e4657610e1781610a93565b610e2084610cf1565b81016020851015610e2f578190505b610e43610e3b85610cf1565b830182610de2565b50505b505050565b600082821c905092915050565b6000610e6960001984600802610e4b565b1980831691505092915050565b6000610e828383610e58565b9150826002028217905092915050565b610e9c8383610cb7565b67ffffffffffffffff811115610eb557610eb4610cc2565b5b610ebf8254610a62565b610eca828285610e05565b6000601f831160018114610ef95760008415610ee7578287013590505b610ef18582610e76565b865550610f59565b601f198416610f0786610a93565b60005b82811015610f2f57848901358255600182019150602085019450602081019050610f0a565b86831015610f4c5784890135610f48601f891682610e58565b8355505b6001600288020188555050505b50505050505050565b82818337600083830152505050565b6000610f7d8385610859565b9350610f8a838584610f62565b610f9383610894565b840190509392505050565b60006020820190508181036000830152610fb9818486610f71565b9050939250505056fea2646970667358221220c260a1525dcdedbbf9054ce10c7b2c2ece62da817af8a55c1aa9f781e850ac9d64736f6c63430008140033",
  "linkReferences": {},
  "deployedLinkReferences": {}
}